:020000040800F2
:10000000C8060020550200081D150008F910000858
:100010001915000801040008E91500080000000097
:10002000000000000000000000000000251500088E
:10003000050400080000000021150008291500082B
:100040006F0200086F0200086F0200086F020008CC
:100050006F0200086F0200086F0200086F020008BC
:100060006F0200086F0200086F0200086F020008AC
:100070006F0200086F0200086F0200086F0200089C
:100080006F0200086F0200086F0200086F0200088C
:100090006F0200086F0200086F0200086F0200087C
:1000A0006F0200086F0200086F0200086F0200086C
:1000B0006F0200086F0200086F0200086F0200085C
:1000C0006F0200086F0200086F0200086F0200084C
:1000D0006F0200086F0200086F0200086F0200083C
:1000E0006F0200086F0200086F0200086F0200082C
:1000F0006F0200086F0200086F0200086F0200081C
:100100006F0200086F0200086F0200086F0200080B
:100110006F0200086F0200086F0200086F020008FB
:100120006F0200086F0200086F0200086F020008EB
:100130006F0200086F0200086F0200086F020008DB
:100140006F0200086F0200086F0200086F020008CB
:100150006F0200086F0200086F0200086F020008BB
:100160006F0200086F0200086F0200086F020008AB
:100170006F0200086F0200086F0200080000000014
:100180006F0200086F02000800F002F800F052F859
:1001900014A696E8000CB244B344DA4501D100F04D
:1001A00049F8BAE80F000FA696E83000A5EB040561
:1001B00004EB0607AAEB0704A7F101074FEA1515A0
:1001C0004FEA3414A4F10104AC4201D300F032F838
:1001D00013F0010F18BFFB1A43F0010300F001F800
:1001E000DBE71847A0180000C0180000103A24BF31
:1001F00078C878C1FAD8520724BF30C830C144BF8C
:1002000004680C6070470000704700000023002461
:1002100000250026103A28BF78C1FBD8520728BF16
:1002200030C148BF0B6070471FB501F011FC1FBD06
:1002300010B510BD00F0A9F81146FFF7F5FF01F069
:10024000B3FA00F0C7F803B4FFF7F2FF03BC00F005
:10025000CFF800000948804709480047FEE7FEE75D
:10026000FEE7FEE7FEE7FEE7FEE7FEE7FEE7FEE766
:1002700004480549054A064B70470000D51500089B
:1002800089010008C8000020C8060020C80200201C
:10029000C802002053EA020C00F069802DE9F04BFF
:1002A0004FF00006002B1FBFB3FA83F503FA05F4E5
:1002B00024FA05F65E4012BF1643B2FA82F502FA3E
:1002C00005F4C5F120051EBF22FA05FC44EA0C0422
:1002D000203556EA044C4FEA144418BF641C4FF012
:1002E00000084FF00009904271EB030C39D300294C
:1002F00019BFB1FA81F701FA07F6B0FA80F700FAF0
:1003000007F6C7F120071EBF20FA07FC46EA0C06D5
:100310002037B6FBF4FCA7EB0507103F07F01F0BD7
:10032000CBF120062CFA06F60CFA0BFB44BFB346C1
:100330000026202FA4BF5E464FF0000B5BEA060CA0
:1003400008BF4FF0010B19EB0B0948EB0608ABFB9C
:10035000027C06FB02CC0BFB03CCC01B71EB0C0137
:10036000C1E70B46024641464846BDE8F08B13B54F
:10037000084318BF4FF0FF300146AFF30080BDE8DF
:100380001C407047704770477047754600F02CF866
:10039000AE4605006946534620F00700854618B072
:1003A00020B5FFF765FFBDE820404FF000064FF095
:1003B00000074FF000084FF0000BAC46ACE8C00956
:1003C000ACE8C009ACE8C009ACE8C00921F00701FD
:1003D0008D46704710B50446AFF300802046BDE857
:1003E0001040FFF730BF00000048704710000020A9
:1003F00001491820ABBEFEE726000200704700004E
:10040000FEE7000070470000B0B5044600F0E6F8D3
:10041000054640F20000C2F200000078611C18BFDF
:10042000044400BF00F0DAF8401BA042FAD3B0BD8C
:100430002DE9F04F82B000F13E4707F1FF778605C6
:1004400046EA972741F60046C4F20206082243F620
:10045000004EB04208BF0722C4F2010E072F38BF7A
:100460003A46002600274FF00008009209E000BF3E
:1004700008F101080237B8F1100F06F1040600F088
:10048000A3800D68012202FA08F415EA0409EFD0EE
:10049000D1F804B003220BF0030CACF10105BA4013
:1004A000012D6FEA020A0FD88268CD6802EA0A02BB
:1004B000BD402A4382604268A243CBF3001404FA91
:1004C00008F42243426005E0BCF1030F02D14FF073
:1004D000030C1EE0C2688C6802EA0A02BC40224398
:1004E000BCF1020FC26014D16FF0030202EA58029D
:1004F0000244D2F820C006F01C040F230D69A3406B
:100500002CEA0303A5402B431362D1F804B00BF08F
:10051000030C02680CFA07F302EA0A021A431BF4FE
:10052000403F0260A4D0002243F644030192C4F28B
:1005300002031A684FF6084C42F480421A601A68A7
:10054000CFF6FF7C02F480420192019A28F0030268
:10055000724452F80C3006F00C050F24AC40A34353
:10056000009C04FA05F52B4342F80C30DEF8082015
:100570004B6842EA090543F60C4CDC0258BF22EAFC
:100580000905CEF80850C4F2010CDCF800209C02EA
:1005900042EA090558BF22EA0905CCF80050DEF806
:1005A00004209C0342EA090558BF22EA0905CEF857
:1005B0000450DEF80020DB0342EA090558BF22EAB6
:1005C0000905CEF8005053E702B0BDE8F08F0000F7
:1005D000002A08BF090481617047000040F2C4008E
:1005E000C2F2000000687047002804BF0120704775
:1005F000F0B581B0044690F83D0028B9002084F899
:100600003C00204600F090F9242084F83D0020684A
:10061000016821F001010160016841F400410160BD
:10062000016821F40041016000F02EFB636848F28C
:10063000A16CC0F2010C40F60011C0F23D0163450F
:100640003CBF48F28041C0F21E01884202D2012024
:1006500001B0F0BD4DF68361C4F21B31A0FB011265
:100660002168970CD1F804E04FF496762EF03F0500
:1006700045EA92454D60774348F638160D6AC0F258
:100680004106A7FB067625F03F07634538BF960C69
:10069000721C3A430A62CA6948F2A0664CF6FF77B8
:1006A000C0F20106B34222EA07020BD801385B0010
:1006B000B0FBF3F001306FF31F30042898BF042023
:1006C0001BE000BFA768013857B119277B43B0FB77
:1006D000F3F001306FF31F3070B100F5804007E098
:1006E00003EB4303B0FBF3F001306FF31F3018B19D
:1006F00000F5004001E000BF01201043C861086818
:10070000D4E9072320F0C00010431843086088682C
:1007100048F2FF3204F10C0790438CCF184310438A
:10072000A6698860C86820F0FF0038433043C8607D
:10073000086840F00100086000202021206484F84F
:100740003D10206384F83E0001B0F0BD2DE9F04378
:1007500083B01E46174689460446FFF73FFF94F8CC
:100760003D10202924D10546206800BF81698907F2
:100770001AD5FFF733FF411B20681A29F6D3816988
:100780008907F3D500202021206384F83D1084F8E8
:100790003E00216C41F02001216484F83C000220DD
:1007A00003B0BDE8F08300BF94F83C10012903D1E9
:1007B000022003B0BDE8F083012184F83C100168F9
:1007C000C90703D1016841F001010160016840F2ED
:1007D000020821F400610160212184F83D101021FC
:1007E00084F83E100021216467626685618DC0F245
:1007F00001082185A8F10211E162E16A0A9E11F562
:10080000803F18BF01291DD1016841F4807101604A
:1008100020464FF0011100223346009500F0CCFC39
:1008200050B120680068C00544BF4FF400702064D8
:10083000012003B0BDE8F0832069B0F5804F07D1F7
:10084000FE2015E00829DFD0216B1229DCD0DFE77C
:10085000062000EAD9102168F030086108F106018D
:10086000204632462B4600F08DFD0028E0D1FF20C7
:10087000216800EA090008612046414632462B46BD
:1008800000F080FD0028D3D100200290206841694B
:10089000029180690290029806E000BF204631462E
:1008A0002A4600F02BFC18BB208D68B32046314649
:1008B0002A4600F0D3FDD8B9606A2168024612F8D2
:1008C000013B0B616262628D013A6285228D531E8B
:1008D00023854F697F07E1D51B04DFD043780230C1
:1008E0000B616062608D01386085901E2085D5E7C0
:1008F000206C04289CD12068016841F400710160DB
:10090000012003B0BDE8F0832068016841F4007164
:100910000160202084F83D00002084F83E0084F827
:100920003C0003B0BDE8F0832DE9F04786B00068D5
:1009300045F60047C4F20007B84203D006B0BDE850
:10094000F08700BF002643F630050196C4F2020589
:10095000286801AC40F00400286028684FF01208B5
:1009600000F0040001900198019628684FF00309F7
:1009700040F00100286028684FF0040A00F00100F0
:10098000019001984FF40070019007F5D630214690
:10099000CDE90286CDF81090CDF814A0FFF748FD00
:1009A0004FF48070CDE9010803A880E8400607F500
:1009B000D2302146FFF73CFD0096286940F4000044
:1009C0002861286900F400000090009806B0BDE896
:1009D000F087000040F2000040F2C401C2F20000C3
:1009E000C2F2000100780A681044086070470000F5
:1009F00080B543F60040C4F20200016841F4007182
:100A00000160016841F480610160016841F4807116
:100A10000160032000F076F8002000F005F800F0F7
:100A200027F8002080BD000070B540F20006C2F239
:100A3000000640F208013278C2F200014FF47A73E6
:100A40000968B3FBF2F20446B1FBF2F1084600F08C
:100A50003DFB0F2C4FF0010508D838B94FF0FF309F
:100A600021460022002500F021F87460284670BD60
:100A700082B0002043F640010190C4F202014A68AE
:100A800042F480424A604A6802F480420192019A2C
:100A90000090086840F080500860086800F08050BE
:100AA00000900098072002B000F02CB810B54EF668
:100AB0000C5CCEF2000CDCF80030C3F3022E8EF09A
:100AC0000704042C28BF0424BEF103034FF0FF3EAB
:100AD0000EFA04F438BF0023A14399400EFA03F341
:100AE0009A43114300F00F0200F160430901043AF8
:100AF00003F564436244002848BF02F10C031970F7
:100B000010BD00004EF60C51CEF200010A684FF6FF
:100B1000FF031A4060F30A2242F0806040F0FD704B
:100B200008607047002804BF012070472DE9F0419C
:100B300043F60808C4F202080446D8F8F8030D4644
:100B400000F00700884207D288F8F853D8F8F80375
:100B500000F00700A84277D12068810717D5410728
:100B600005D5D8F8001041F4E051C8F8001001078D
:100B700005D5D8F8001041F46041C8F80010D8F845
:100B80000010A26821F0F0011143C8F80010C0075E
:100B900040D1D8F8F80300F00700A84207D988F838
:100BA000F853D8F8F80300F00700A8424CD12068A9
:100BB000410707D5D8F80010E26821F4E05111434D
:100BC000C8F80010000708D5D8F80000216920F403
:100BD000604040EAC100C8F8000000F069F8D8F8A9
:100BE000001041F66A22C1F30311C0F60002515C05
:100BF00040F2080220FA01F140F20400C2F20000C3
:100C00000068C2F200021160FFF70EFF0020BDE88D
:100C1000F08100BF6068811E022907D258F8081CC5
:100C200089015CBF0120BDE8F08111E0012807D1F6
:100C300058F8081C89035CBF0120BDE8F08107E07B
:100C400058F8081C890703D40120BDE8F08100BFD3
:100C5000D8F8001021F003010843C8F80000FFF79E
:100C6000BDFC064641F28837D8F80000616800F004
:100C70000C00B0EB810F8CD0FFF7B0FC801BB842AA
:100C8000F2D90320BDE8F08140F2080043F60801E4
:100C9000C2F20000C4F202010068096841F67A223B
:100CA000C1F38221C0F60002515CC84070470000C9
:100CB00010B543F60404C4F20204606800F00C01AD
:100CC00042F200400829C0F2F40007D0042918BFFE
:100CD00010BD41F20020C0F27A0010BD216801F081
:100CE0003F02216823684902C3F3881106D4A1FB9F
:100CF00000010023FFF7CEFA07E000BF41F2002019
:100D0000C0F27A004843B0FBF2F021680222C1F33E
:100D1000014102EB4101B0FBF1F010BD002804BF1E
:100D2000012070472DE9F04182B00446007843F677
:100D30000006C007C4F202060CD0B06800F00C0038
:100D4000042840F081803068800303D56068002863
:100D500000F06A81207880071BD5B06810F00C0F76
:100D600009D0B06800F00C00082840F08780706857
:100D7000400200F183803068800703D5E0680128D5
:100D800040F052813068216920F0F80040EAC1004B
:100D900030602078000713D4207840072AD4A56952
:100DA000002D00F03C81B06800F00C00082840F0F5
:100DB000A180012D40F01081012002B0BDE8F0813A
:100DC0006069002840F20000C4F2472000F07E80F5
:100DD0000121C0F8801EFFF701FC0546706F8007F7
:100DE000DAD4FFF7FBFB401B0228F7D9032002B03F
:100DF000BDE8F081306C5FEAC0080AD400200190A1
:100E0000306C40F080503064306C00F080500190C5
:100E1000019847F20007C4F200073868C00547D4BC
:100E2000386840F480703860FFF7D8FB054600BF93
:100E30003868C0053CD4FFF7D1FB401B0228F7D926
:100E4000032002B0BDE8F081B06800F00C00082873
:100E500003D1706840023FF576AF6068B0F5803F1F
:100E600007D0B0F5A02F40F09B80306840F4802080
:100E70003060306840F4803030609BE0E0680028EB
:100E80005CD00020C4F2472001210160FFF7A6FBDF
:100E9000054600BF306880073FF574AFFFF79EFB43
:100EA000401B0228F6D9032002B0BDE8F08100BF44
:100EB000A068012805D0052854D1306F40F0040007
:100EC0003067306F40F00100306755E00021C0F816
:100ED000801EFFF783FB0546706F80077FF55CAFD0
:100EE000FFF77CFB401B0228F6D9032002B0BDE8C7
:100EF000F08100BF0027C4F2472700203866FFF7C3
:100F00006DFB022D05460DD13068800140F19080C7
:100F1000FFF764FB401B02284FF00300F4D902B036
:100F2000BDE8F0813068800179D5FFF757FB401BA1
:100F300002284FF00300F5D9F1E700BF0020C4F20A
:100F4000472000210160FFF749FB05463068800714
:100F50007FF51FAFFFF742FB401B02284FF0030055
:100F6000F4D9DCE7316F002821F001013167316FDE
:100F700021F0040131677DD0FFF730FB054641F2D7
:100F8000883700BF306F800700F18680FFF726FBAF
:100F9000401BB842F6D9032002B0BDE8F08100BF83
:100FA0003168002821F480313160316821F48021DA
:100FB00031607BD0FFF712FB054600BF306880032D
:100FC0003FF5C8AEFFF70AFB401B6428F6D90320A3
:100FD00002B0BDE8F08100BF7068E16900F48002F2
:100FE0008A4221D1216A00F03F028A421CD147F691
:100FF000C071626A0140B1EB821F15D1A16A4FF640
:10100000FF73C903994300F44032A1F580318A424D
:101010000AD1E16A00F07060B0EB016F04D10020EA
:1010200002B0BDE8F08100BF012002B0BDE8F08150
:1010300004F11C052FCD084340EA8210D9034FF676
:10104000FF729143A1F5803140EA0560084370606A
:1010500001203866FFF7C2FA044600BF30688001FD
:10106000DDD4FFF7BBFA001B02284FF00300F5D9CF
:1010700055E700BFFFF7B2FA054641F2883700BFD7
:10108000306F800708D5FFF7A9FA401BB8424FF030
:101090000300F5D943E700BFB8F1000F3FF57FAE7D
:1010A000306C20F08050306479E600BFFFF796FA8C
:1010B000054600BF306880037FF54CAEFFF78EFA1F
:1010C000401B64284FF00300F4D928E7411E00209C
:1010D000B0EB116F1CBF012070474EF21002CEF230
:1010E000000251604EF62351CEF20001F0230B7046
:1010F0000721906011607047FEE7000070B503683B
:10110000044653F8140F400711D40E46481C29D04A
:1011100086BB00BF1868400527D4FFF75FFA236835
:1011200053F8140F400737D518684007F2D5002050
:1011300070BD00BF18684007F9D41868400514D482
:1011400018684007F3D4186840050ED418684007A3
:10115000EDD41868400508D4186840074FF0000027
:1011600048BF70BD18684005E4D56FF48060186012
:10117000042012E0154603E053F8140F4007D6D4BC
:1011800018684005F1D4FFF729FA401B2368B042E4
:10119000F2D958694007EFD4202000212022216392
:1011A00084F83D2084F83E10226C10432064012016
:1011B00084F83C1070BD00002DE9F0410546006840
:1011C0001E46144601F47F0201338FB242D0DDF88F
:1011D0001880B2F5803F40F0878040693840C01BDE
:1011E000B0FA80F04009A04240F0C8804EB924E037
:1011F00040693840C01BB0FA80F04009A04240F07E
:10120000BD80FFF7EBF9A0EB08012868B142EFD9E8
:1012100041693940C91BB1FA81F14909A142E7D1BD
:101220009BE000BF40693840C01BB0FA80F0400925
:10123000A0424FF0000040F0A280FFF7CFF92868ED
:1012400041693940C91BB1FA81F14909A142E9D18B
:1012500083E000BFB2F5803F24D100BF416939402F
:10126000C91BB1FA81F14909A14240F08780416967
:101270003940C91BB1FA81F14909A14240F07E8091
:1012800041693940C91BB1FA81F14909A14275D1BF
:1012900041693940C91BB1FA81F14909A142DDD048
:1012A0006CE000BF81693940C91BB1FA81F149097D
:1012B000A14263D181693940C91BB1FA81F1490961
:1012C000A1425BD181693940C91BB1FA81F1490959
:1012D000A14253D181693940C91BB1FA81F1490951
:1012E000A142DFD04AE000BF80693840C01BB0FA9D
:1012F00080F04009A04241D146B923E080693840DE
:10130000C01BB0FA80F04009A04237D1FFF766F960
:10131000A0EB08012868B142F0D981693940C91BA6
:10132000B1FA81F14909A142E8D116E0806938405B
:10133000C01BB0FA80F04009A0424FF0000018BF77
:10134000BDE8F081FFF74AF9286881693940C91B77
:10135000B1FA81F14909A142E8D100202021286396
:1013600085F83D1085F83E00296C41F02001296484
:1013700085F83C000120BDE8F08100BF0020BDE8F9
:10138000F0810000F0B581B0044600681D46436955
:101390008FB203EA0701B94202D1002001B0F0BDCB
:1013A0004169164601323FD049053FD4CEB100BF56
:1013B000FFF714F9411B2068B14203D94169394054
:1013C000B94215D141693940B942E6D04169490570
:1013D000EED52BE041693940B942DED0416949057B
:1013E00024D4FFF7FBF8206841693940B942F1D0B5
:1013F000202023E041693940B942CED041694905F6
:1014000014D441693940B942C7D0416949050DD466
:1014100041693940B942C0D04169490506D44169A2
:101420003940B942B9D041694905E3D5016841F471
:10143000007101606FF4806141610420002120226D
:10144000216384F83D2084F83E10226C1043206410
:1014500084F83C10012001B0F0BD000070B50368B5
:10146000044653F8140F000611D40E46481C29D028
:1014700086BB00BF1868400527D4FFF7AFF8236884
:1014800053F8140F000637D518680006F2D500206F
:1014900070BD00BF18680006F9D41868400514D460
:1014A00018680006F3D4186840050ED418680006C2
:1014B000EDD41868400508D4186800064FF0000005
:1014C00048BF70BD18684005E4D56FF480601860AF
:1014D000042012E0154603E053F8140F0006D6D49A
:1014E00018684005F1D4FFF779F8401B2368B04233
:1014F000F2D958690006EFD4202000212022216370
:1015000084F83D2084F83E10226C104320640120B2
:1015100084F83C1070BD0000FEE70000FEE700000C
:101520007047000070470000FFF754BAB0B592B0A2
:10153000002443F640000B94CDE90944CDE907446B
:101540000594CDE90344CDE901440094C4F20200BE
:101550000168022541F080510160006800F0805070
:101560000090009847F200000094C4F20000016867
:1015700041F480410160006800F4804000900098D0
:101580000120099010200A9008200E90A820CDE993
:101590000F050720119006A80695CDE90C54FFF71A
:1015A000BDFB18B172B600BFFEE700BF0F20CDE94A
:1015B00001054FF4A05004904FF48050059001A80D
:1015C00005210394FFF7AEFA10B172B6FEE700BF33
:1015D00012B0B0BD4EF68850CEF20000016841F462
:1015E0007001016070470000FEE7000070B582B036
:1015F0003220FEF709FF40F2700443F63C06C2F2C7
:101600000004C0F60C06642501AA20464E210423DE
:1016100001960095FFF79AF80520FEF7F5FE01AA5E
:1016200020464E21042301960095FFF78FF80120F4
:10163000FEF7EAFE01AA20464E21042301960095FA
:10164000FFF784F80A20FEF7DFFE42F62C00C0F612
:101650000C00019001AA20464E2104230095FFF7BB
:1016600075F80A20FEF7D0FE42F62C00C8F68C0072
:10167000019001AA20464E2104230095FFF766F849
:101680000120FEF7C1FE40F60C00C8F68C00019068
:1016900001AA20464E2104230095FFF757F80120A8
:1016A000FEF7B2FE40F60C00C1F61C00019001AA44
:1016B00020464E2104230095FFF748F80120FEF74D
:1016C000A3FE0120FEF7A0FE40F60C00C6F66C005B
:1016D000019001AA20464E2104230095FFF736F819
:1016E0000120FEF791FE40F60C00CCF6CC000190F4
:1016F00001AA20464E2104230095FFF727F802B0E7
:1017000070BD000080B582B000F0F001000101F171
:101710000C0208318DF8051000F10C0108308DF82D
:10172000070040F270008DF804208DF806104FF08D
:10173000640CC2F2000001AA4E210423CDF800C0BF
:10174000FFF704F802B080BD0178002908BF704798
:10175000F0B583B040F27004461E6427C2F2000464
:1017600002AD00BF21F00F00090100F10D020930A8
:101770008DF8090001F10D008DF80A0001F1090052
:101780008DF808208DF80B0020464E212A460423B0
:101790000097FEF7DBFFB17801360029E2D103B0F4
:1017A000BDE8F0407047000088B0FFF721F9FFF76F
:1017B000BDFE002443F6300007940294C4F20200F8
:1017C000016840F2000A41F0100101600168C4F2B2
:1017D000020A01F0100102910299029401680AF5CF
:1017E000805741F0040101600168002201F004010A
:1017F00002910299029401684FF0080941F08001BA
:101800000160016801F0800102910299029401686F
:1018100041F001010160016801F0010102910299AA
:101820000294016841F002010160016801F00201C7
:10183000029102990294016841F008010160006878
:10184000082100F008000290029838460197FEF740
:10185000BFFE0AF500684046012101220125FEF77E
:10186000B7FE0AF540604FF2100100220090FEF72B
:10187000AFFE03AE38463146CDE90395CDE90544C8
:10188000FEF7D6FD40463146CDE90355CDE9054486
:10189000FEF7CEFDCDF80C904FF0020B4FF005098E
:1018A00040463146CDE904B40694CDF81C90FEF7CD
:1018B000BFFD4FF48810CDE904045046314603952E
:1018C000FEF7B6FD1020CDE9030B06200790504629
:1018D0003146CDE90544FEF7ABFDE020CDE9030B31
:1018E00050463146CDE90544CDF81C90FEF7A0FDE9
:1018F00004200AF58067CDE9030438463146059493
:10190000FEF796FD4FF48060CDE9030B3846314673
:10191000CDE90544CDF81C90FEF78AFD4FF210008A
:10192000CDE90305009D31462846CDE90544FEF783
:101930007FFD4FF4A450CDE9030B062007904046ED
:101940003146CDE90544FEF773FD4FF40070CDE953
:101950000304504631460594FEF76AFD4FF4E0500B
:10196000CDE9030B0A20079050463146CDE90544E6
:10197000FEF75EFD2020CDE903042846314605949C
:10198000FEF756FD4FF4107003901220CDE90404C9
:1019900004200790384631460694FEF749FD4FF47F
:1019A0009010CDE9040401983146CDF80CB0FEF753
:1019B0003FFD40F27000AAF5D231C2F2000048F2B9
:1019C000A0624FF48043C0F2010280E81600C0E933
:1019D0000343C0E90544C0E90744FEF705FE18B11A
:1019E00072B600BFFEE700BFFFF700FE8020FFF7E2
:1019F00089FE0BA0FFF7A8FEC020FFF783FE0BA017
:101A0000FFF7A2FE9020FFF77DFE0CA0FFF79CFEE3
:101A1000D020FFF777FE0AA0FFF796FEFEE700BF93
:101A200048454C4C4F20574F524C44004C434420A7
:101A3000323078342044454D4F00000042590000B8
:101A40005368756268616D2053616D616C200000A0
:101A5000F1EE100A4FF6FF71C0F2C03120EA01002A
:101A600040F04070E1EE100A7047000000000000F6
:101A7000000001020304060708090000000001023B
:101A800003040000A81A0008000000201000000055
:101A9000EC010008B81A000810000020B806000089
:101AA0000C0200080000000001000000100000000F
:081AB0000024F4000000000016
:040000050800018965
:00000001FF
