:020000040800F2
:10000000E80600200903000891250008892500085A
:100010008D250008111A00084D2700080000000077
:10002000000000000000000000000000992500080A
:10003000151A000800000000952500089D250008FD
:1000400023030008230300082303000823030008F8
:1000500023030008230300082303000823030008E8
:1000600023030008230300082303000823030008D8
:1000700023030008230300082303000823030008C8
:1000800023030008230300082303000823030008B8
:1000900023030008230300082303000823030008A8
:1000A0002303000823030008230300082303000898
:1000B0002303000823030008230300082303000888
:1000C0002303000823030008230300082303000878
:1000D0002303000823030008230300082303000868
:1000E0002303000823030008230300082303000858
:1000F0002303000823030008230300082303000848
:100100002303000823030008230300082303000837
:100110002303000823030008230300082303000827
:100120002303000823030008230300082303000817
:100130002303000823030008230300082303000807
:1001400023030008230300082303000823030008F7
:1001500023030008230300082303000823030008E7
:1001600023030008230300082303000823030008D7
:1001700023030008230300082303000800000000F5
:10018000230300082303000800F002F800F0ADF894
:1001900014A696E8000CB244B344DA4501D100F04D
:1001A000A4F8BAE80F000FA696E83000A5EB040506
:1001B00004EB0607AAEB0704A7F101074FEA1515A0
:1001C0004FEA3414A4F10104AC4201D300F08DF8DD
:1001D00013F0010F18BFFB1A43F0010300F001F800
:1001E000DBE718477832000098320000103A24BF4D
:1001F00078C878C1FAD8520724BF30C830C144BF8C
:1002000004680C6070470000704700000023002461
:1002100000250026103A28BF78C1FBD8520728BF16
:1002200030C148BF0B6070476E2900F0A987702964
:1002300001F01381662903F04A80652903F04780A5
:10024000672903F04480612903F0438003681B0A97
:1002500028BF41F08001692900F04281642900F043
:100260003F81752900F03C816F2901F0A180782938
:1002700001F0DF80E92901F03B80E42901F03880BA
:10028000F52901F03580EF2901F09E80F82901F071
:10029000DE800368DB0928BF41F08001632900F09C
:1002A0008586732900F08A86E32901F06983F329A2
:1002B00001F06E83002070471FB502F0FBFF00F0D5
:1002C000C9FB04000020002102F0DEFF401C60603A
:1002D0000020002102F0C2FFE0600020002102F0B7
:1002E000A7FF20611FBD10B510BD01F09BF911469D
:1002F000FFF7E2FF02F02CFA01F072FB03B4FFF704
:10030000F2FF03BC01F07EFB094880470948004723
:10031000FEE7FEE7FEE7FEE7FEE7FEE7FEE7FEE7B5
:10032000FEE7FEE704480549054A064B7047000012
:100330004926000889010008E8000020E80600209E
:10034000E8020020E802002010B504460021112038
:10035000ABBE002C00D0206010BD53EA020C00F0B0
:1003600069802DE9F04B4FF00006002B1FBFB3FA58
:1003700083F503FA05F424FA05F65E4012BF16432E
:10038000B2FA82F502FA05F4C5F120051EBF22FA81
:1003900005FC44EA0C04203556EA044C4FEA1444A8
:1003A00018BF641C4FF000084FF00009904271EB39
:1003B000030C39D3002919BFB1FA81F701FA07F606
:1003C000B0FA80F700FA07F6C7F120071EBF20FA3F
:1003D00007FC46EA0C062037B6FBF4FCA7EB050742
:1003E000103F07F01F0BCBF120062CFA06F60CFA93
:1003F0000BFB44BFB3460026202FA4BF5E464FF040
:10040000000B5BEA060C08BF4FF0010B19EB0B0960
:1004100048EB0608ABFB027C06FB02CC0BFB03CCD3
:10042000C01B71EB0C01C1E70B4602464146484632
:10043000BDE8F08B13B5084318BF4FF0FF300146FD
:10044000AFF30080BDE81C40704700000FB41CB53E
:100450000C0007AA009007D04142A14202D32044D9
:10046000401E01E04FF0FF30074B7B44694601908E
:10047000069800F076FD0021002C01D0009A117042
:100480001CBC5DF814FB00001B0B000070B50C4693
:100490000546012A05D02878800600D5EA690023A0
:1004A00002E0012305E05B1C934202D2E05C0028DD
:1004B000F9D1A869E618C01AA861286A1844286208
:1004C000284600F024FE04E0D5E9012114F8010BD0
:1004D0009047B442F8D3284600F02FFE70BD0000CC
:1004E0002DE9F0410646002410687529314616A50D
:1004F00010D000F033FE002802DA404213A507E0D6
:1005000031688A0701D512A502E0490704D511A573
:10051000012401E000F02BFE00210A2206F124074D
:1005200009E0B0FBF2FCB0FBF2F302FB1C00303040
:1005300078541846491C0028F3D123462A463046F1
:10054000BDE8F04100F0A0BA000000002D0000005E
:100550002B000000200000002DE9F05F89460446D2
:100560004FF0000ADFF874B1FB44C0F820A0204629
:10057000E1688847002874D0252806D0D4E90121F5
:100580009047206A401C2062F1E700265F46204623
:10059000E16888472028054607DB312D05D2781908
:1005A00010F8200C08B10643F1E7B00701D526F09A
:1005B0000406C4F81CA00027C4F818A02A2D09D0EE
:1005C000284602F02DFE38B304EB8708303DC8F80A
:1005D000185019E059F8041B204604EB870291617A
:1005E000E1688847012F054618D1E069002820DA24
:1005F00026F020061DE0D8F8180000EB800005EB7F
:1006000040003038C8F818002046E16888470546A1
:1006100002F006FE0028EED1012F0AD02E2D08D1BF
:100620002046E16888477F1C0546022F46F02006D9
:10063000C4DBA069002803DA404246F00106A0614D
:10064000F00701D026F010066C2D0BD0682D09D0D4
:100650004C2D39D06A2D35D0742D35D07A2D33D02C
:1006600016E038E0E1682F4620468847B842054644
:1006700009D16C2F26D04FF48060E16806432046F4
:100680008847054604E06C2F1AD04FF4807006436B
:100690000DB3A5F14100192802D8203546F40066B3
:1006A0004A462946204626604E46FFF7BDFD80B1EA
:1006B00001280BD0F61D26F0070000F1080956E7C7
:1006C0004020E4E78020D8E70020D6E706F10409BF
:1006D0004DE7284652E7206ABDE8F09F6A2D0000EA
:1006E000014900F06FBC00001000002070B5054605
:1006F00001B90721541A241DB4F5B67F09DD286815
:1007000000F05DF9A04204DC2868401C286001204C
:1007100070BD002C05DA2868401E286000F04FF9F3
:100720000444072094FBF0F0401C70BD2DE9F04F0D
:100730001F4615468B468246002689B000F08AF98E
:10074000D0F810800024BBF1000F70D015F8010B19
:1007500010B125280DD10FE024B1641E06A850F871
:100760002450F3E7002130460AF8061009B0BDE82E
:10077000F08F0AF80600C7E0E94615F8010B592882
:1007800070D023DC49286ED014DC44286DD008DCFE
:100790002528EED041283ED0422849D043282CD1EC
:1007A00056E04528E9D0462869D0472876D0482821
:1007B00023D17AE04D380C281FD2DFE800F0881EE4
:1007C000061E1E9BA0A9B3B5C1CFD6E75A38212873
:1007D00013D2DFE800F0111212121212121A263789
:1007E000455012592612741212797E128012891203
:1007F00096A212B3BDCB1100A8E725200AF8060087
:10080000761C5E4513D26D1EA0E7D8F80010BA69B9
:10081000D8F8240011E0D8F80410BA69D8F82800F4
:100820000BE0D8F808103A69D8F82C0005E0B2E0DF
:10083000D8F80C103A69D8F8300002FB001101EB2F
:100840000809AAE006A840F82450D8F818108AE051
:100850007969642091FBF0F21332484668A192E076
:10086000FA6889E08AE022E0FFE706A840F8245011
:1008700065A5641C6AE7FA6866A1484683E006A895
:1008800040F8245064A5F4E7384600F0ADF8642140
:1008900090FBF1F201FB120258E0FFE7384600F04E
:1008A000A3F802465FA168466DE0BA6864E0B868E4
:1008B0000C210B3090FBF1F201FB120205E0FA690A
:1008C00059A14846521C5EE03A694DA1F9E77A68A1
:1008D00052E00A2116E0B8680C2802DAD8F81010A5
:1008E000ADE7D8F81410AAE706A840F82450D8F8C5
:1008F000341038E006A840F824504DA5B9E73A680E
:100900003AE009210AF80610761C5E45B2D342E0AF
:1009100006A840F8245048A5ABE7BA6902B90722F7
:1009200048A1AAE700210CE0786900F26C700890F9
:10093000D7E9061208A8FFF7D9FE06E0BA69EFE783
:100940000121D7E9062000F02EF802462CA1AAE7E3
:1009500006A840F82450D8F81C1004E006A840F877
:100960002450D8F8201001EB080582E7796964204B
:1009700091FBF0F200FB121221A17EE77A69484652
:1009800028A102F26C7200F069F806E00AF806008D
:10099000761C5E4501D30020E8E619F8010B00281B
:1009A0003FF4DFAEF2E7511A00D5C91D401A01D558
:1009B00000207047072190FBF1F0401C7047810731
:1009C0000CD1642190FBF1F201FB120151B94FF4FB
:1009D000C87190FBF1F201FB120018B1002000F287
:1009E0006D1070470120FAE708B5416901F26C719A
:1009F0000091D0E906126846FFF778FE009808BD1E
:100A0000252E326400000000256D2F25642F2579E6
:100A1000000000002532640025592D256D2D256428
:100A20000000000025640000252E33640000000053
:100A300025483A254D00000025483A254D3A2553D2
:100A400000000000252E3164000000007047704750
:100A500070477047004870475C0000200FB41CB519
:100A6000084B06AA7B4469460090059800F079FA85
:100A700004460020694600F097FB20461CBC5DF848
:100A800014FB0000410700002DE9F0470D46994690
:100A90009246044600F124080168880604D5E069FE
:100AA00021F01001216000E00120A84201DD471B78
:100AB00000E00027A1697A1902EB0900081AA06179
:100AC0002078C00602D4204600F021FB002608E072
:100AD000D4E901211AF806009047206A401C761CD0
:100AE00020624E45F4DB2078C0060AD5204600F08F
:100AF0000EFB06E0D4E9012130209047206A401C1B
:100B00002062381EA7F10107F4DC07E0D4E90121D7
:100B100018F805009047206A401C2062281EA5F1A5
:100B20000105F3DC204600F008FB2078000602D522
:100B30000220BDE8F0870120FBE72DE9FF4F0C46BE
:100B40001E464FF0FF378BB0D2E90001DDF8608020
:100B50000A908A46C1F30A5505B93D460021084668
:100B60004FF00000BAF1000F00F4400005DA00EB8E
:100B700080004FF4400101EA50004FEA9059B9F16A
:100B8000010F00DDB9460A9850EA4A000ED044F63B
:100B90001050A5F2FF3545432F14B8F1000F1ED0B9
:100BA0007542291E1EDDC9F100021CE0B8F1010FDB
:100BB0004FF0000001D0302103E0F24305E0215462
:100BC000401CB042FBDB30460022002121540B992F
:100BD000C1F80880C1E900200FB0BDE8F08FBD1B4F
:100BE0006D1CDEE74A4600DA694206A800F040FCC8
:100BF00006AB93E8070003AB83E8070050460A9969
:100C000001F02EFF8DE80700A0F500501F3800907E
:100C10000398002D0ADD42F21F014A4608440023D2
:100C200003A90390684602F097F909E0A0F5005087
:100C30004A461F38002303A90390684602F0A1F931
:100C40008DE807000004000C03D04FF0FF3041088E
:100C500000E01046B8F1000F03D0002200921546C4
:100C60001EE0751E05D400F00DFA303262556D1E7F
:100C7000F9D5B3460122084302D000227F1C04E0CC
:100C80002078302801D100227F1E002A099784D0C5
:100C90001DE0112D07DA00F0F5F9303262556D1CB8
:100CA00050EA0102F5D1084302D00098C8B10EE025
:100CB0000021681E05E0235C625C63542254401EE0
:100CC000491C8142F7DBAB46A81B401E099000205F
:100CD00004F80B000B98099AC0F80880C0E9002BB3
:100CE0007AE711264FF0000857E72DE9F04F8846C4
:100CF0000446D21D22F0070191B0D1E90001CDE9EF
:100D00000A0102F075FA02460B98C00F01D02D209F
:100D100007E02068810701D52B2002E0202101EAAD
:100D2000C000032A099001D0072A05DB034641468B
:100D3000204600F03FFA0BE12078800601D5E069FB
:100D400000E00620B8F1650F814606D0B8F1660FC5
:100D500018D0B8F1670F70D131E00020B9F1110F50
:100D6000009001DB112301E009F101030AAA01A9A6
:100D70000CA8FFF7E2FEDDE90C70002609F1010581
:100D8000834647E001204B4600904FF000470AAAF7
:100D900001A90CA8FFF7D1FEDDE90DB00C995D4665
:100DA000002610B909F101000D18B9EB050003D4B4
:100DB000C0F1FF3609F10105A5EB09002BE0B9F1FF
:100DC000010F01DA4FF001090020B9F1110F009075
:100DD000484601DD112300E003460AAA01A90CA838
:100DE000FFF7ABFEDDE90C704D4600268346207808
:100DF00000070AD4AB4500DA5D4601A8012D04DDE9
:100E0000411911F8011C302907D04F4502DA17F1BA
:100E1000040F04DA012082460FE06D1EEEE7002F7A
:100E200002DCED1B3E4403E0781CA84200DD7D1C83
:100E3000B81B00F1010A4FF000472078000703D4E7
:100E4000AA4501DB4FF0FF3A0021B7F1004F0DF149
:100E500043088DF8431024D002202B23002F01DA01
:100E60007F422D230A21021EA0F1010000DC5FB1A8
:100E700097FBF1FC97FBF1F201FB1C7C17460CF190
:100E8000300C08F801CDEEE7A8F1010003702188CD
:100E9000090501D5452100E06521A0F1010800F810
:100EA000011C09980FA9A1EB0807FF1D00B1012043
:100EB000411901EBEA70A1693844081A401EA0618B
:100EC0002078C00602D4204600F021F9099828B104
:100ED000D4E901219047206A401C20622078C00696
:100EE00022D5204600F013F91EE0002E04DBB345A6
:100EF00002DD01A8805D00E03020D4E901219047A7
:100F0000206A401C2062761CAAF101005FEA000AF8
:100F10000AD1FFF79FFDC0680168405CD4E9012158
:100F20009047206A401C2062281EA5F10105DCDCE8
:100F300007E0D4E9012118F8010B9047206A401C12
:100F40002062381EA7F10107F3DC204600F0F5F817
:100F5000032011B041E6000001694A1C02610878D3
:100F6000704700B58FB0CDE90131002105910549E9
:100F70007944CDE9031011466846FFF7EDFA0FB04A
:100F800000BD0000E5FFFFFFD1E900239A4202D235
:100F9000531C0B601070704710B5436913B1AFF369
:100FA000008001E0FFF772FA012010BD127800F115
:100FB00024010A7000224A700122EDE711684FF007
:100FC000FF32E9E770B50C46016800204A1C3ED0AC
:100FD0003C22B1FBF2F302FB1313B1FBF2F12360ED
:100FE000B1FBF2F302FB1313B1FBF2F118226360C1
:100FF000B1FBF2F302FB1313B1FBF2F146F2E03264
:101000000A440721A360B2FBF1F301FB132140F274
:10101000B553B2FBF3F5A161B2FBF3F103FB15226B
:101020008900B2F5B77F08D39B10521EB2FBF3F5CF
:101030002944B2FBF3F503FB15220F4BE26161611A
:1010400089077B440CD03B2A0AD3521C08E02C2190
:10105000204600F07FFA0120E0600AE0521A401CAE
:10106000195C9142FAD9521CC4E903204FF0FF30B9
:101070002062204670BD00006623000000487047D3
:101080003C00002030B5B0F10A0271F100034FEAD4
:10109000900E4EEA817EB0EB0E0061EB91014FEABB
:1010A000101E4EEA017E10EB0E0041EB11114FEACB
:1010B000102E4EEA016E10EB0E0041EB11214FEAAB
:1010C000104E4EEA014E10EB0E0041EB114140185C
:1010D00041F100014FEAD00040EA41704FEAD101EE
:1010E0004FEA810444EA907410EB800544EB01045C
:1010F0006D1944EB0404521BA3414FF0000348BF99
:101100000A3200D530BD401C41F1000130BD70B540
:10111000044685690068C10601D5302600E0202616
:10112000C00707D070BDD4E9012130469047206A3E
:10113000401C20626D1EF6D570BD70B504468569F1
:101140000078C00707D170BDD4E901212020904765
:10115000206A401C20626D1EF6D570BD09684A05E4
:1011600001D540B27047C905FCD500B27047096887
:101170004A0501D5C0B27047C905FCD580B2704799
:1011800011680268006A530501D508700AE0D305AA
:1011900001D5088006E0130603D5C217C1E9000295
:1011A00000E00860012070470A6802F8010B0A603D
:1011B000704700002DE9F0411F46044603260168F0
:1011C000072A01F4006004DB08B116A505E016A5A6
:1011D00003E008B115A500E015A521F0100020607E
:1011E000A069C01EA0610FB1401EA0612046FFF79C
:1011F0008EFF4FB1D4E9012138469047206A401C48
:101200002062C01C206206E0206AFAE7D4E90121CE
:1012100015F8010B9047761EF8D22046FFF78DFF98
:10122000BDE8F0814E414E006E616E00494E4600B1
:10123000696E66002DE9FF5F15468A460446DFF8B1
:10124000AC80F8440027D8E900103E46CDE90010F4
:1012500010E03AF816106A4602A800F09DFB411C07
:1012600007D02178890603D5E269391891420DD853
:101270000744761C2078800602D5E069B84205DD77
:10128000AE42E6DB3AF816000028E2D1A069C01BA6
:10129000A0612046FFF73BFFD8E90010CDE9001020
:1012A000002017E03AF818106A4602A800F074FB14
:1012B000B0F1FF3F81460BD000250DF1080B05E092
:1012C000D4E901211BF8050090476D1C4D45F7D36B
:1012D00008F10100B0428046E4DB206A3844206215
:1012E0002046FFF72AFFBDE8FF9F0000A220000074
:1012F0002DE9F0418046D21D22F007020025D2E9F7
:101300000002F52915A614D0011E72F1000106DABB
:101310000023D0EB030063EB020211A608E0D8F82B
:1013200000108B0701D50FA602E0490701D50EA6D4
:1013300001251146002408F1240704E0FFF7A2FE6E
:1013400030323A55641C50EA0102F7D12B4632463E
:1013500021464046BDE8F041FFF796BB0000000083
:101360002D0000002B0000002000000030B4002100
:1013700000F1240408E002F00705D208303542EA03
:101380004372DB086554491C52EA0305F3D1046833
:10139000002310A2250708D504F020040C4304D034
:1013A000C46901230CA2641EC46130BCFFF76CBB8E
:1013B00010B5044621461068FFF7D9FE02462046C4
:1013C000BDE810400023D1E7D21D22F00701D1E98A
:1013D0000023CBE70000000030000000F0B40D4611
:1013E0000188090502D5214C7C4402E01F4C7C4455
:1013F0000E34002100F1240608E002F00F07120964
:10140000E75D42EA03721B097754491C52EA03075D
:10141000F3D102780023120704D5702D06D009B14C
:10142000022311342246F0BCFFF72EBB01231034F7
:10143000F8E770B504460D4621461068FFF797FEA1
:10144000024629462046BDE870400023C6E7D21D6B
:1014500022F00703D3E90023C0E70368126843F0D2
:10146000200303600823C3610023B7E7041F0000C3
:101470002DE9F047814616468AB0354878440DC8B4
:101480008DE80D0032487844801C03AC0DC884E818
:101490000D0041F69B300844372190FBF1F290FBA0
:1014A000F1F5A5F1800501FB12041B3C02D5644255
:1014B000012000E00020DFF898A080460027FA44D1
:1014C000AAF1BE0A0EE0E0070AD03246684607EBF2
:1014D000470101230AEB810101F053FD8DE807006C
:1014E00064107F1C002CEED1194F7F44AE3F19E0F1
:1014F000E80715D007EB04100DF1180A90E80E006C
:101500008AE80E00C068F04201D19819089032466E
:10151000012306A903A801F034FD03AB83E807000B
:101520006D10641C002DE3D14FF001033246694673
:10153000B8F1000F03A802D001F00EFD01E001F0A8
:1015400020FDC9E90001C9F808200AB0BDE8F0870C
:10155000141F00004FF0000200B513469446964653
:10156000203922BFA0E80C50A0E80C50B1F12001B6
:10157000BFF4F7AF090728BFA0E80C5048BF0CC064
:101580005DF804EB890028BF40F8042B08BF7047C2
:1015900048BF20F8022B11F0804F18BF00F8012B34
:1015A000704700000000000030B44FF0013C50F8DC
:1015B000042B51F8043BCCFA52F4D51A20D1FCB9D3
:1015C00050F8042B51F8043BCCFA52F4D51A17D139
:1015D000B4B950F8042B51F8043BCCFA52F4D51AA4
:1015E0000ED16CB950F8042B51F8043BCCFA52F4EC
:1015F000D51A05D1002CDAD030BC4FF0000070476E
:1016000029BAB1FA81F111F01801D1F1200084401A
:10161000F2D1CA40CB4012F0FF0213F0FF0330BCFE
:10162000D01A70477546FFF729FDAE46050069469A
:10163000534620F00700854618B020B5FEF772FE2D
:10164000BDE820404FF000064FF000074FF00008C3
:101650004FF0000BAC46ACE8C009ACE8C009ACE800
:10166000C009ACE8C00921F007018D4670470000B1
:101670002DE9F04F04460D46D21D22F0070089B037
:10168000D0E900974846394601F0B2FD0246F80F0E
:1016900001D02D2307E02068810701D52B2302E02C
:1016A000202101EAC0038DF820300BB1012000E0B9
:1016B0000020032A824601D0072A04DB294620465F
:1016C000FFF778FD3FE12078800601D40D2500E08A
:1016D000E569C7F30A560D2D49DA00214FEA175B79
:1016E00008464FF00000002F00F4400007DA00EB3E
:1016F00080004FF4400100EBD07001EA60008115DA
:10170000012901DD4FF0FF3100224FEA850CBCF1C9
:10171000180F06D31346ACF118004FF08052C240A8
:1017200003E04FF4801323FA0CF30CF10C0CBCF122
:10173000200F04D3ACF1200C09FA0CF001E007FAF9
:101740000CF000294FF0004801DD18B90FE00ED170
:1017500040450CD319EB02095F4121B9404502D144
:101760009F4329EA0209BBEB175F00D0761C208853
:10177000000502D57B48784402E07A48784419385D
:1017800008AA302302F80A30037C0AF10101002E76
:101790000AF1020A53546A4602DC4FF0300101E0BC
:1017A0004FF031014FF001088DF8001002D0A6F281
:1017B000FF3603E059EA470100D06B4E002D02DCF2
:1017C0002178090704D54FF002082E218DF8011069
:1017D000C44600210BE0C7F303433F01C35C491C2F
:1017E0006D1E02F80830052908F1010801DA002D04
:1017F000F1DC00210CE000EB1973491C1B786D1E15
:10180000082902F808304FEA091908F1010801DA3D
:10181000002DF0DC21688B0602D516E0A8F1010846
:10182000E04505DD02EB080313F8013C302BF5D051
:10183000B8F1000F09DD02EB080313F8013C2E2B71
:1018400003D1090701D4A8F10108002D05DD3E21CF
:1018500002F808106D1E08F10108407C002E02F805
:10186000080008F1010804DA2D20764202F8080089
:1018700002E02B2002F808000A214FF47A70864219
:1018800008F101080BDB96FBF0F3303302F8083067
:1018900096FBF0F308F1010800FB136601E0642EEB
:1018A0000CDB642096FBF0F3303302F8083096FB33
:1018B000F0F308F1010800FB136601E00A2E06DBD5
:1018C00096FBF1F0303002F8080008F1010896FBB1
:1018D000F1F001FB1060303002F80800A16908F156
:1018E000010808EB050202EB0A00081AA061207843
:1018F000C00602D42046FFF70AFC216A08AE01EBBD
:101900000A00206204E0D4E9012116F8010B904797
:10191000BAF1010AF7D22078C00602D52046FFF7B7
:10192000F6FB6E4609E016F8010B3E280FD0D4E90D
:1019300001219047206A401C2062B8F10108F2D2D0
:101940002046FFF7FAFB09B00320BDE8F08F206ABC
:101950002844206203E0D4E90121302090476D1E25
:10196000EBD3F8E7511C000002FCFFFF10B5436900
:1019700013B1AFF3008001E0FFF75CFC012010BD64
:10198000128800F1240182840022C2840122EDE742
:1019900011684FF0FF32E9E72DE9F04116460C4699
:1019A000054600F027F8036893F80101012807D0E5
:1019B000FF2C12D8185D80B101202C70BDE8F08199
:1019C000D3F807013246214603F20713C718284609
:1019D000BC46BDE8F041002360474FF0FF30EDE723
:1019E00010B50446AFF300802046BDE81040FEF776
:1019F00085BC000010B5FFF72DF8001D10BD00BF1D
:101A00008918000001491820ABBEFEE7260002003D
:101A1000FEE7000070470000B0B5044600F0E6F8AD
:101A2000054640F20000C2F200000078611C18BFB9
:101A3000044400BF00F0DAF8401BA042FAD3B0BD66
:101A40002DE9F04F82B000F13E4707F1FF778605A0
:101A500046EA972741F60046C4F20206082243F6FA
:101A6000004EB04208BF0722C4F2010E072F38BF54
:101A70003A46002600274FF00008009209E000BF18
:101A800008F101080237B8F1100F06F1040600F062
:101A9000A3800D68012202FA08F415EA0409EFD0C8
:101AA000D1F804B003220BF0030CACF10105BA40ED
:101AB000012D6FEA020A0FD88268CD6802EA0A0295
:101AC000BD402A4382604268A243CBF3001404FA6B
:101AD00008F42243426005E0BCF1030F02D14FF04D
:101AE000030C1EE0C2688C6802EA0A02BC40224372
:101AF000BCF1020FC26014D16FF0030202EA580277
:101B00000244D2F820C006F01C040F230D69A34044
:101B10002CEA0303A5402B431362D1F804B00BF069
:101B2000030C02680CFA07F302EA0A021A431BF4D8
:101B3000403F0260A4D0002243F644030192C4F265
:101B400002031A684FF6084C42F480421A601A6881
:101B5000CFF6FF7C02F480420192019A28F0030242
:101B6000724452F80C3006F00C050F24AC40A3432D
:101B7000009C04FA05F52B4342F80C30DEF80820EF
:101B80004B6842EA090543F60C4CDC0258BF22EAD6
:101B90000905CEF80850C4F2010CDCF800209C02C4
:101BA00042EA090558BF22EA0905CCF80050DEF8E0
:101BB00004209C0342EA090558BF22EA0905CEF831
:101BC0000450DEF80020DB0342EA090558BF22EA90
:101BD0000905CEF8005053E702B0BDE8F08F0000D1
:101BE000002A08BF090481617047000040F2E40048
:101BF000C2F200000068704740F2000040F2E401C9
:101C0000C2F20000C2F2000100780A6810440860C5
:101C10007047000080B543F60040C4F2020001683E
:101C200041F400710160016841F480610160016864
:101C300041F480710160032000F076F8002000F08C
:101C400005F800F027F8002080BD000070B540F2D4
:101C50000006C2F2000640F208013278C2F200012A
:101C60004FF47A730968B3FBF2F20446B1FBF2F168
:101C7000084600F051FB0F2C4FF0010508D838B989
:101C80004FF0FF3021460022002500F021F874605B
:101C9000284670BD82B0002043F640010190C4F296
:101CA00002014A6842F480424A604A6802F4804273
:101CB0000192019A0090086840F08050086008681E
:101CC00000F0805000900098072002B000F02CB87F
:101CD00010B54EF60C5CCEF2000CDCF80030C3F30D
:101CE000022E8EF00704042C28BF0424BEF1030347
:101CF0004FF0FF3E0EFA04F438BF0023A143994091
:101D00000EFA03F39A43114300F00F0200F160430F
:101D10000901043A03F564436244002848BF02F114
:101D20000C03197010BD00004EF60C51CEF20001EC
:101D30000A684FF6FF031A4060F30A2242F08060FF
:101D400040F0FD7008607047002804BF0120704714
:101D50002DE9F04143F60808C4F202080446D8F819
:101D6000F8030D4600F00700884207D288F8F853C0
:101D7000D8F8F80300F00700A84277D1206881075F
:101D800017D5410705D5D8F8001041F4E051C8F83F
:101D90000010010705D5D8F8001041F46041C8F8DB
:101DA0000010D8F80010A26821F0F0011143C8F823
:101DB0000010C00740D1D8F8F80300F00700A8428F
:101DC00007D988F8F853D8F8F80300F00700A842BC
:101DD0004CD12068410707D5D8F80010E26821F4FB
:101DE000E0511143C8F80010000708D5D8F80000EA
:101DF000216920F4604040EAC100C8F8000000F00A
:101E00007DF8D8F8001043F2DE32C1F30311C0F6BA
:101E10000002515C40F2080220FA01F140F2040095
:101E2000C2F200000068C2F200021160FFF70EFF6C
:101E30000020BDE8F08100BF6068811E022907D242
:101E400058F8081C89015CBF0120BDE8F08111E051
:101E5000012807D158F8081C89035CBF0120BDE8A0
:101E6000F08107E058F8081C890703D40120BDE879
:101E7000F08100BFD8F8001021F003010843C8F832
:101E80000000FFF7B3FE064641F28837D8F800009D
:101E9000616800F00C00B0EB810F8CD0FFF7A6FE5C
:101EA000801BB842F2D90320BDE8F08140F208005F
:101EB00043F60801C2F20000C4F20201006809689A
:101EC00043F2EE32C1F38221C0F60002515CC840F9
:101ED0007047000040F2080043F60801C2F200001B
:101EE000C4F202010068096843F2EE32C1F34231E4
:101EF000C0F60002515CC8407047000010B543F6C0
:101F00000404C4F20204606800F00C0142F20040D4
:101F10000829C0F2F40007D0042918BF10BD41F20F
:101F20000020C0F27A0010BD216801F03F02216854
:101F300023684902C3F3881106D4A1FB00010023E2
:101F4000FEF70BFA07E000BF41F20020C0F27A0072
:101F50004843B0FBF2F021680222C1F3014102EBD9
:101F60004101B0FBF1F010BD002804BF0120704713
:101F70002DE9F04182B00446007843F60006C00720
:101F8000C4F202060CD0B06800F00C00042840F047
:101F900081803068800303D56068002800F06A8182
:101FA000207880071BD5B06810F00C0F09D0B068FE
:101FB00000F00C00082840F087807068400200F1B3
:101FC00083803068800703D5E068012840F05281A3
:101FD0003068216920F0F80040EAC10030602078C4
:101FE000000713D4207840072AD4A569002D00F0FB
:101FF0003C81B06800F00C00082840F0A180012D61
:1020000040F01081012002B0BDE8F0816069002835
:1020100040F20000C4F2472000F07E800121C0F8A9
:10202000801EFFF7E3FD0546706F8007DAD4FFF7E7
:10203000DDFD401B0228F7D9032002B0BDE8F08186
:10204000306C5FEAC0080AD400200190306C40F088
:1020500080503064306C00F080500190019847F25D
:102060000007C4F200073868C00547D4386840F458
:1020700080703860FFF7BAFD054600BF3868C005BC
:102080003CD4FFF7B3FD401B0228F7D9032002B070
:10209000BDE8F081B06800F00C00082803D170683A
:1020A00040023FF576AF6068B0F5803F07D0B0F5ED
:1020B000A02F40F09B80306840F480203060306872
:1020C00040F4803030609BE0E06800285CD0002065
:1020D000C4F2472001210160FFF788FD054600BFDB
:1020E000306880073FF574AFFFF780FD401B022882
:1020F000F6D9032002B0BDE8F08100BFA068012836
:1021000005D0052854D1306F40F004003067306F9F
:1021100040F00100306755E00021C0F8801EFFF755
:1021200065FD0546706F80077FF55CAFFFF75EFDCC
:10213000401B0228F6D9032002B0BDE8F08100BFA1
:102140000027C4F2472700203866FFF74FFD022D15
:1021500005460DD13068800140F19080FFF746FDC3
:10216000401B02284FF00300F4D902B0BDE8F08113
:102170003068800179D5FFF739FD401B02284FF008
:102180000300F5D9F1E700BF0020C4F24720002189
:102190000160FFF72BFD0546306880077FF51FAF14
:1021A000FFF724FD401B02284FF00300F4D9DCE7C1
:1021B000316F002821F001013167316F21F00401F6
:1021C00031677DD0FFF712FD054641F2883700BF29
:1021D000306F800700F18680FFF708FD401BB84292
:1021E000F6D9032002B0BDE8F08100BF31680028B5
:1021F00021F480313160316821F4802131607BD05D
:10220000FFF7F4FC054600BF306880033FF5C8AE19
:10221000FFF7ECFC401B6428F6D9032002B0BDE8B0
:10222000F08100BF7068E16900F480028A4221D128
:10223000216A00F03F028A421CD147F6C071626AEF
:102240000140B1EB821F15D1A16A4FF6FF73C9039C
:10225000994300F44032A1F580318A420AD1E16A03
:1022600000F07060B0EB016F04D1002002B0BDE857
:10227000F08100BF012002B0BDE8F08104F11C052F
:102280002FCD084340EA8210D9034FF6FF729143E5
:10229000A1F5803140EA056008437060012038668E
:1022A000FFF7A4FC044600BF30688001DDD4FFF7CF
:1022B0009DFC001B02284FF00300F5D955E700BF35
:1022C000FFF794FC054641F2883700BF306F800766
:1022D00008D5FFF78BFC401BB8424FF00300F5D93F
:1022E00043E700BFB8F1000F3FF57FAE306C20F040
:1022F0008050306479E600BFFFF778FC054600BFE8
:10230000306880037FF54CAEFFF770FC401B6428FB
:102310004FF00300F4D928E7411E0020B0EB116F05
:102320001CBF012070474EF21002CEF20002516035
:102330004EF62351CEF20001F0230B70072190607E
:1023400011607047002804BF0120704710B5044693
:1023500090F8410028B9002084F84000204600F0A1
:1023600021F8242084F841002068C16821F400513C
:10237000C160204600F072F92068016921F49041A3
:102380000161416921F02A014161C16841F40051B4
:10239000C16000202021606484F8411084F842105C
:1023A000606310BD016844F20040C4F20000814245
:1023B00018BF704780B586B0002143F63002019106
:1023C000C4F20202136900F5DE3043F400331361F6
:1023D000136903F400330193019B0191136843F0E7
:1023E00001031360126802F001020192019A0C22AB
:1023F00001920222CDE902210321049107210591D6
:1024000001A9FFF71DFB06B0BDE880407047000042
:102410002DE9F041044690F8410020281CBF02201D
:10242000BDE8F0810D4600294FF0010000F0AA80C0
:102430001646002A08BFBDE8F08100206064212014
:10244000984684F84100FFF7D1FBA684E684A16892
:102450000646B1F5805F02D12069002862D02F4680
:102460000025E08C002861D018F1010018D0B8F1E7
:10247000000F37D1216808E017F8010B4860E08CA5
:102480000138E084E08C002851D00868000673D53C
:10249000002FF1D135F8020B00276FF35F20EDE735
:1024A000216802E00868000609D40868000606D41E
:1024B000086800065CBF08685FEA0060F2D51FB1DB
:1024C00017F8010B05E000BF35F8020B00276FF38A
:1024D0005F204860E08C0138E084E08C0028E4D183
:1024E00025E000BF216800BF0868000608D4FFF798
:1024F0007DFB801B404541D82168C868F4E700BFD8
:1025000017B117F8010B04E035F8020B00276FF341
:102510005F204860E08C0138E084E08C0028E3D143
:1025200005E000BF0027E08C00289DD121680868E5
:1025300040061FD4B8F1000F1ED018F101000FD1D2
:102540000868400616D40868400613D40868400698
:1025500010D4086840064FF00000F1D50FE000BF2E
:10256000FFF744FB801B404508D82068C16800681D
:102570004006F5D5002002E0FFF738FB03202021BC
:1025800084F84110BDE8F081FEE70000FEE700009E
:10259000FEE700007047000070470000FFF72CBB0B
:1025A000B0B592B0002443F640000B94CDE9094445
:1025B000CDE907440594CDE90344CDE901440094F5
:1025C000C4F202000168022541F0805101600068F8
:1025D00000F080500090009847F200000094C4F290
:1025E0000000016841F480410160006800F480400F
:1025F000009000980120099010200A9008200E9069
:10260000A820CDE90F050720119006A80695CDE971
:102610000C54FFF7A9FC18B172B600BFFEE700BF6B
:102620000F20CDE901054FF4A05004904FF48050E5
:10263000059001A805210394FFF786FB10B172B63F
:10264000FEE700BF12B0B0BD4EF68850CEF20000DB
:10265000016841F4700101607047000010B5044644
:102660000068D4E902C22369016921F44051114391
:102670000161626943EA0C01E3691143C2681943CD
:1026800049F20C639A431143C1604169A26921F484
:10269000407141F20043114340F48062C4F20103EF
:1026A0009A42416102D1FFF715FC01E0FFF7FEFB02
:1026B000E16963681922B1F5004FA0FB020123D143
:1026C0005A00DB0FFDF749FE48F21F51C5F2EB112E
:1026D000A0FB01235A094FF69C73C0F6FF7303F168
:1026E000805302FB0300322303EBC000A0FB010177
:1026F0004FF4F87000EA111000EB0210C1F3421120
:1027000008442168886010BD9A009B0FFDF725FEE4
:1027100048F21F51C5F2EB11A0FB01235A094FF6F5
:102720009C73C0F6FF7302FB0300322303EB00101F
:10273000A0FB0101F02000EA511000EB0210C1F3F0
:10274000431108442168886010BD0000FEE70000C6
:10275000B2B0FFF75FFAFFF723FF002443F6300023
:102760000D942294C4F20200016840F2000A41F084
:10277000100101600168C4F2020A01F01001229107
:102780002299229401680AF5805741F00401016002
:102790000168002201F0040122912299229401682B
:1027A0004FF0080941F080010160016801F08001EB
:1027B000229122992294016841F00101016001688F
:1027C00001F00101229122992294016841F0020155
:1027D0000160016801F002012291229922940168AE
:1027E00041F0080101600068082100F00800229013
:1027F000229838460897FFF7F3F90AF50068404633
:10280000012101220125FFF7EBF90AF540604FF2A3
:10281000100100220790FFF7E3F909AE3846314670
:10282000CDE90995CDE90B44FFF70AF94046314659
:10283000CDE90955CDE90B44FFF702F9CDF8249015
:102840004FF0020B4FF0050940463146CDE90AB47E
:102850000C94CDF83490FFF7F3F84FF48810CDE9DD
:102860000A04504631460995FFF7EAF81020CDE9F1
:10287000090B06200D9050463146CDE90B44FFF779
:10288000DFF8E020CDE9090B50463146CDE90B4495
:10289000CDF83490FFF7D4F804200AF58067CDE92D
:1028A0000904384631460B94FFF7CAF84FF48060AC
:1028B000CDE9090B38463146CDE90B44CDF83490CB
:1028C000FFF7BEF84FF21000CDE90905079D31462C
:1028D0002846CDE90B44FFF7B3F84FF4A450CDE9F7
:1028E000090B06200D9040463146CDE90B44FFF719
:1028F000A7F84FF40070CDE90904504631460B9417
:10290000FFF79EF84FF4E050CDE9090B0A200D9037
:1029100050463146CDE90B44FFF792F82020CDE92F
:102920000904284631460B94FFF78AF84FF41070DB
:1029300009901220CDE90A0404200D903846314652
:102940000C94FFF77DF84FF49010CDE90A04089835
:102950003146CDF824B0FFF773F840F29C00AAF599
:10296000DE31C2F200000C234FF4E13280E81600A1
:10297000C0E90344C0E90534C461FFF7E3FC18B1C2
:1029800072B600BFFEE700BF2748229026A0071DB1
:102990008ECF00F1140E056A2391D0E909019EE85B
:1029A0004050CDE92A5027A880E8405000202492CA
:1029B000259326972C91FDF7C7FC099009A8FDF7F0
:1029C0008FFE43F2F6322DAD0346C0F600022846D4
:1029D0001421FDF7ABFE7B221EA34EF200075A2006
:1029E0005521CDE9003243F20842C4F25507CDE942
:1029F0000210C0F6000209A864212B460494059732
:102A0000FDF724FD40F29C04C2F2000422AD00BF99
:102A1000204629462B224FF0FF33FFF7F9FC4FF4F5
:102A20007A70FEF7F9FFF3E748656C6C6F20667209
:102A30006F6D205368756268616D2073656E64699F
:102A40006E67206461746120746F20657370333227
:102A5000210A00004A6F686E20446F650000000084
:102A60005FEA400C08BF91F0000F4FEA8C234FEA59
:102A7000C12243EA51514FEA1C5018BF00F5F04003
:102A80004FEA300018BF41F000415FEA6C5C00F093
:102A90002980BCF1FF3F08BF40F080407047130C15
:102AA00006BF12044FF0100C4FF0000C130E04BFC1
:102AB00012020CF1080C130F04BF12010CF1040CEC
:102AC000930F04BF92000CF1020CD30F04BF52000D
:102AD0000CF1010C11464FF00002A0F11F00A0EB19
:102AE0000C00704711F0004F08BF704731F00041F3
:102AF0003FF4D5AF0B0C06BF09044FF0100C4FF09C
:102B0000000C0B0E04BF09020CF1080C0B0F04BFE4
:102B100009010CF1040C8B0F04BF89000CF1020CAD
:102B2000CB0F04BF49000CF1010CCCF1200322FAB9
:102B300003F341EA030102FA0CF2A0EB0C0000F1EE
:102B40000100704723F07F4720F07F4C80EA0300AC
:102B500000F00040ACEB070303F57C5303F1FF03E7
:102B60002DE9804909B44FEA144324EA03484FEAA7
:102B7000154B25EA0B4E0FF2042606EB13273E7881
:102B800003FB0667C7F5000707FB06F64FEAD646C4
:102B900006F102064FEA543707FB066CCCF1005CE5
:102BA0004FEA1C472CEA074C0CFB06F507FB06F422
:102BB00004EB15464FEA961649085FEA320234BF25
:102BC00000204FF000404FEAD13706FB07FC4FEAE8
:102BD0001C4C0CFB0BF7D21B03FB0CF761EB070142
:102BE0000CFB0EF7B0EB074072EB17420CFB08F73B
:102BF00034BFA2EB0742B2EB074261EB17414FEA49
:102C00000C444FEA910706FB07FC4FEA1C4C0CFBF7
:102C10000BF7B0EBC74072EB573203FB0CF734BF36
:102C2000A2EBC742B2EBC74261EB57310CFB0EF788
:102C3000B0EBC70072EB57720CFB08F734BFA2EB86
:102C4000C702B2EBC70261EB57714FEA816141EAFB
:102C500092114FEA826242EA90124FEA806004EBDE
:102C6000CC04039F4FEAD13706FB07FC4FEA1C4C0C
:102C70000CFB0BF7D21B03FB0CF761EB07010CFB02
:102C80000EF7B0EB074072EB17420CFB08F734BFAE
:102C9000A2EB0742B2EB074261EB17414FEA8C55BA
:102CA00004EB9C244FEA910706FB07FC4FEA1C4CFF
:102CB0000CFB0BF7B0EBC74072EB573203FB0CF782
:102CC00034BFA2EBC742B2EBC74261EB57310CFBFA
:102CD0000EF7B0EBC70072EB57720CFB08F734BF6E
:102CE000A2EBC702B2EBC70261EB57714FEA8161F9
:102CF00041EA92114FEA826242EA90124FEA806002
:102D000015EB4C2544F100044FEAD13706FB07FCD4
:102D10004FEA1C4C0CFB0BF7D21B03FB0CF761EBCF
:102D200007010CFB0EF7B0EB074072EB17420CFBF0
:102D300008F734BFA2EB0742B2EB074261EB174141
:102D40004FEA813141EA92414FEA823242EA9042AF
:102D50004FEA80304FEA0C7615EB1C1544F1000465
:102D600048EA03434EEA0B484FF0000EB2EB080C62
:102D700071EB030724BF624639464EEB0E0E4FF04F
:102D8000000B0018524149414BEB0B0BB2EB080C06
:102D900071EB03077BF1000B24BF624639464EEB13
:102DA0000E0E4FF0000B0018524149414BEB0B0B3C
:102DB000B2EB080C71EB03077BF1000B24BF6246FA
:102DC00039464EEB0E0E51EA020718BF46F00106D7
:102DD00016EB0E7655F1000254F1000103D5BDE863
:102DE0008901BDE80088BDE88901BDE80048B61941
:102DF000524141EB0101A3F10103704780807F7EC6
:102E00007D7C7B7A79787776767574737271717060
:102E10006F6E6E6D6C6C6B6A6A6968686766666512
:102E20006464636362616160605F5F5E5E5D5D5CA0
:102E30005C5B5B5A5A595958585757565655555511
:102E40005454535352525251515050504F4F4F4E71
:102E50004E4D4D4D4C4C4C4B4B4B4A4A4A494949BF
:102E60004848484747474746464645454544444401
:102E70004443434343424242424141419C46002B2A
:102E800030D477002BD04FEA37071CB503B44FF08E
:102E900010004FF01001BAF1000F06D0BCF1000F86
:102EA000DCBF40F0080040F008014FF000000FBC0C
:102EB000BDE810400BF1010BBBF1010F08BF5FEA49
:102EC000170722BF12F1010211F101014FF0004179
:102ED00043F1000300F0004043EA00007047F9D3DB
:102EE0005708D0E746EA06464FEA164613F1400F68
:102EF0001FDD13F1200FDFBF16430A4600212033E8
:102F00005B42BED0C3F1200746EA06464FEA1646AA
:102F100002FA07F746EA070622FA03F2C3F120078E
:102F200001FA07F742EA070221FA03F14FF0000322
:102F3000A7E746EA020646EA06464FEA164646EA8A
:102F40000106BCBF46EA0646360C4FF000034FF0C0
:102F500000024FF0000194E72DE9804C70B49A46CE
:102F6000934691E8380007C831EA400C48BF34EA7C
:102F7000430C03D5FFF7E6FDFFF780FFF0BCBDE88B
:102F8000008C2DE9804C70B49A46934691E8380045
:102F900007C810F0804F08BF13F0804F03D100F036
:102FA00005F8FFF76BFFF0BCBDE8008C20F07F4711
:102FB00023F07F4C80EA030000F0004007EB0C0395
:102FC000A3F57C53A3F1FE0392F0000F00F0B38051
:102FD00095F0000F00F077802DE901494FEA11408C
:102FE00021EA00484FEA144624EA064700FB06FCA3
:102FF00008FB06F607FB08F818EB06484CEB164CE6
:1030000000FB07F718EB07484CEB17404FEA124B51
:1030100022EA0B4E4FEA154625EA06470BFB06FC53
:103020000EFB06F607FB0EFE1EEB064E4CEB164C97
:103030000BFB07F71EEB074E4CEB174B18EB0B087F
:1030400040F1000018EB0E0B58EB000840F10000B7
:103050008F1A4FF000014FF000063CBFC943661BBA
:1030600014BFB5EB040C00213CBFC943F61B4FEA6B
:10307000174427EA04454FEA1C472CEA074C04FB97
:10308000076205FB07F70CFB05F616EB074642EB5C
:10309000174204FB0CFC16EB0C4642EB1C421BEBEC
:1030A000060658EB020241414EEA8E0E46EA9E06A3
:1030B00001D5BDE80189B619524141EB0101A3F1E7
:1030C0000103BDE801894FEA144524EA05464FEAA9
:1030D000114721EA074C05FB07F406FB07F70CFB39
:1030E00006F111EB074144EB174405FB0CFC11EB17
:1030F0000C4144EB1C444FEA124722EA074C05FB03
:1031000007F206FB07F70CFB06F616EB074642EB49
:10311000174205FB0CFC16EB0C4642EB1C456A18EB
:1031200054F1000148BF7047B619524141EB01010B
:10313000A3F10103704795F0000F37D04FEA114219
:1031400021EA02464FEA144724EA074C02FB07F142
:1031500006FB07F70CFB06F414EB074441EB1741A1
:1031600002FB0CFC14EB0C4441EB1C414FEA1547ED
:1031700025EA074C02FB07F506FB07F70CFB06F6F2
:1031800016EB074645EB174502FB0CFC16EB0C460D
:1031900045EB1C42121951F1000148BF7047B619A6
:1031A000524141EB0101A3F1010370474FEA14457D
:1031B00024EA05464FEA114721EA074C05FB07F1CF
:1031C00006FB07F70CFB06F212EB074241EB174137
:1031D00005FB0CFC12EB0C4251EB1C414FF00006BE
:1031E00048BF7047921841EB0101A3F101037047FA
:1031F00003B401984100009850EAC12018BF042090
:103200004A0D18BF40F0010040F2FF72B2EB515F6F
:1032100008BF40F00200012808BF052002B0704737
:1032200030380A2801D20120704700207047000082
:1032300010B500290AD00878002807D0054878443E
:10324000FEF7B2F9002801D0002010BD02487844F2
:1032500010BD00003E0200003602000010B500293B
:103260000AD00878002807D005487844FEF79CF972
:10327000002801D0002010BD0248784410BD000095
:10328000920300008A03000010B500290AD00878D4
:10329000002807D005487844FEF786F9002801D0B9
:1032A000002010BD0248784410BD000082030000D9
:1032B0007A030000F1EE100A4FF6FF71C0F2C03140
:1032C00020EA010040F04070E1EE100A7047FDF77F
:1032D0000CBDFEF7CDB9040000080000000000009E
:1032E00000020001000010000000000000000000CB
:1032F000303132333435363738394142434445462C
:103300004030580030313233343536373839616225
:10331000636465664030780002400000000000A051
:103320000000000005400000000000C80000000090
:103330000C4000000000409C00000000194000000C
:103340000020BCBE0000000034400000BFC91B8E3E
:1033500000000004B5400000504BCFD06607E2CF1C
:10336000010000006C4100003E8251AADFEEA7344C
:1033700001000000D9420000DCB5A0E23A301F97FE
:10338000FFFFFFFFB4450000FD25A0C8E9A3C14F22
:10339000FFFFFFFFFF3F0000000000800000000073
:1033A000FF3F000000000080000000001F1D1F1EE6
:1033B0001F1E1F1F1E1F1E1F30313233343536377C
:1033C0003839616263646566787000303132333455
:1033D000353637383941424344454658500000009D
:1033E00000000000000001020304060708090000B5
:1033F00000000102030425592D256D2D2564542557
:10340000483A254D3A2553007B2264617465223A7F
:10341000222573222C226E616D65223A22257322A9
:103420002C22726F6C6C4E6F223A25642C227375BD
:10343000626A65637431223A25642C227375626A6C
:1034400065637432223A25642C2261766572616765
:1034500065223A252E32667D0000000028370008DC
:103460000000002010000000EC01000838370008C0
:1034700010000020D80600000C02000880010000A7
:1034800043000000F8FFFFFF380000005400000078
:1034900099000000C9000000400100004301000045
:1034A00046010000550100005E010000040000001C
:1034B0000A000000040000000A000000670100008C
:1034C00053756E004D6F6E0054756500576564004E
:1034D00054687500467269005361740053756E64D8
:1034E0006179000000004D6F6E646179000000009A
:1034F000547565736461790000005765646E657387
:103500006461790054687572736461790000467271
:1035100069646179000000005361747572646179B7
:10352000004A616E00466562004D61720041707232
:10353000004D6179004A756E004A756C00417567EF
:1035400000536570004F6374004E6F7600446563EE
:10355000004A616E7561727900000046656272759D
:1035600061727900004D61726368000000000041E3
:103570007072696C00000000004D6179000000006D
:103580000000004A756E650000000000004A756C7E
:103590007900000000000041756775737400000039
:1035A0000053657074656D626572004F63746F627D
:1035B00065720000004E6F76656D626572000044B2
:1035C0006563656D62657200414D00504D00256177
:1035D00020256220256520255420255900256D2FA2
:1035E00025642F25790025483A254D3A2553002595
:1035F000493A254D3A255320257000001C00000053
:1036000043000000F8FFFFFF0C0000000E00000068
:103610000F0000002E000000100100004300000019
:10362000F8FFFFFF004040404040404040404141E3
:103630004141414040404040404040404040404087
:103640004040404040050202020202020202020221
:10365000020202020220202020202020202020021E
:1036600002020202020290909090909010101010AE
:10367000101010101010101010101010101010104A
:1036800002020202020288888888888808080808DE
:1036900008080808080808080808080808080808AA
:1036A00002020202400000000000000000000000D2
:1036B000000000000000000000000000000000000A
:1036C00000000000000000000000000000000000FA
:1036D00000000000000000000000000000000000EA
:1036E00000000000000000000000000000000000DA
:1036F00000000000000000000000000000000000CA
:1037000000000000000000000000000000000000B9
:1037100000000000000000000000000000000000A9
:103720000000000000000000010000001000000088
:083730000024F4000000000079
:040000050800018965
:00000001FF
