:020000040800F2
:10000000C006002055020008BD0F0008B50F00080B
:10001000B90F000801040008791100080000000071
:10002000000000000000000000000000C50F0008F4
:100030000504000800000000C10F0008C90F0008F7
:100040006F0200086F0200086F0200086F020008CC
:100050006F0200086F0200086F0200086F020008BC
:100060006F0200086F0200086F0200086F020008AC
:100070006F0200086F0200086F0200086F0200089C
:100080006F0200086F0200086F0200086F0200088C
:100090006F0200086F0200086F0200086F0200087C
:1000A0006F0200086F0200086F0200086F0200086C
:1000B0006F0200086F0200086F0200086F0200085C
:1000C0006F0200086F0200086F0200086F0200084C
:1000D0006F0200086F0200086F0200086F0200083C
:1000E0006F0200086F0200086F0200086F0200082C
:1000F0006F0200086F0200086F0200086F0200081C
:100100006F0200086F0200086F0200086F0200080B
:100110006F0200086F0200086F0200086F020008FB
:100120006F0200086F0200086F0200086F020008EB
:100130006F0200086F0200086F0200086F020008DB
:100140006F0200086F0200086F0200086F020008CB
:100150006F0200086F0200086F0200086F020008BB
:100160006F0200086F0200086F0200086F020008AB
:100170006F0200086F0200086F0200080000000014
:100180006F0200086F02000800F002F800F052F859
:1001900014A696E8000CB244B344DA4501D100F04D
:1001A00049F8BAE80F000FA696E83000A5EB040561
:1001B00004EB0607AAEB0704A7F101074FEA1515A0
:1001C0004FEA3414A4F10104AC4201D300F032F838
:1001D00013F0010F18BFFB1A43F0010300F001F800
:1001E000DBE718474C1200006C120000103A24BFE5
:1001F00078C878C1FAD8520724BF30C830C144BF8C
:1002000004680C6070470000704700000023002461
:1002100000250026103A28BF78C1FBD8520728BF16
:1002200030C148BF0B6070471FB501F0E7F81FBD34
:1002300010B510BD00F0A9F81146FFF7F5FF00F06A
:100240009DFF00F0C7F803B4FFF7F2FF03BC00F016
:10025000CFF800000948804709480047FEE7FEE75D
:10026000FEE7FEE7FEE7FEE7FEE7FEE7FEE7FEE766
:1002700004480549054A064B704700007510000800
:1002800089010008C0000020C0060020C002002034
:10029000C002002053EA020C00F069802DE9F04B07
:1002A0004FF00006002B1FBFB3FA83F503FA05F4E5
:1002B00024FA05F65E4012BF1643B2FA82F502FA3E
:1002C00005F4C5F120051EBF22FA05FC44EA0C0422
:1002D000203556EA044C4FEA144418BF641C4FF012
:1002E00000084FF00009904271EB030C39D300294C
:1002F00019BFB1FA81F701FA07F6B0FA80F700FAF0
:1003000007F6C7F120071EBF20FA07FC46EA0C06D5
:100310002037B6FBF4FCA7EB0507103F07F01F0BD7
:10032000CBF120062CFA06F60CFA0BFB44BFB346C1
:100330000026202FA4BF5E464FF0000B5BEA060CA0
:1003400008BF4FF0010B19EB0B0948EB0608ABFB9C
:10035000027C06FB02CC0BFB03CCC01B71EB0C0137
:10036000C1E70B46024641464846BDE8F08B13B54F
:10037000084318BF4FF0FF300146AFF30080BDE8DF
:100380001C407047704770477047754600F02CF866
:10039000AE4605006946534620F00700854618B072
:1003A00020B5FFF765FFBDE820404FF000064FF095
:1003B00000074FF000084FF0000BAC46ACE8C00956
:1003C000ACE8C009ACE8C009ACE8C00921F00701FD
:1003D0008D46704710B50446AFF300802046BDE857
:1003E0001040FFF730BF00000048704710000020A9
:1003F00001491820ABBEFEE726000200704700004E
:10040000FEE7000070470000B0B5044600F0E6F8D3
:10041000054640F20000C2F200000078611C18BFDF
:10042000044400BF00F0DAF8401BA042FAD3B0BD8C
:100430002DE9F04F82B000F13E4707F1FF778605C6
:1004400046EA972741F60046C4F20206082243F620
:10045000004EB04208BF0722C4F2010E072F38BF7A
:100460003A46002600274FF00008009209E000BF3E
:1004700008F101080237B8F1100F06F1040600F088
:10048000A3800D68012202FA08F415EA0409EFD0EE
:10049000D1F804B003220BF0030CACF10105BA4013
:1004A000012D6FEA020A0FD88268CD6802EA0A02BB
:1004B000BD402A4382604268A243CBF3001404FA91
:1004C00008F42243426005E0BCF1030F02D14FF073
:1004D000030C1EE0C2688C6802EA0A02BC40224398
:1004E000BCF1020FC26014D16FF0030202EA58029D
:1004F0000244D2F820C006F01C040F230D69A3406B
:100500002CEA0303A5402B431362D1F804B00BF08F
:10051000030C02680CFA07F302EA0A021A431BF4FE
:10052000403F0260A4D0002243F644030192C4F28B
:1005300002031A684FF6084C42F480421A601A68A7
:10054000CFF6FF7C02F480420192019A28F0030268
:10055000724452F80C3006F00C050F24AC40A34353
:10056000009C04FA05F52B4342F80C30DEF8082015
:100570004B6842EA090543F60C4CDC0258BF22EAFC
:100580000905CEF80850C4F2010CDCF800209C02EA
:1005900042EA090558BF22EA0905CCF80050DEF806
:1005A00004209C0342EA090558BF22EA0905CEF857
:1005B0000450DEF80020DB0342EA090558BF22EAB6
:1005C0000905CEF8005053E702B0BDE8F08F0000F7
:1005D000002A08BF090481617047000040F2B8009A
:1005E000C2F200000068704740F2000040F2B8011B
:1005F000C2F20000C2F2000100780A6810440860EC
:100600007047000080B543F60040C4F20200016864
:1006100041F400710160016841F48061016001688A
:1006200041F480710160032000F076F8002000F0B2
:1006300005F800F027F8002080BD000070B540F2FA
:100640000006C2F2000640F208013278C2F2000150
:100650004FF47A730968B3FBF2F20446B1FBF2F18E
:10066000084600F051FB0F2C4FF0010508D838B9AF
:100670004FF0FF3021460022002500F021F8746081
:10068000284670BD82B0002043F640010190C4F2BC
:1006900002014A6842F480424A604A6802F4804299
:1006A0000192019A0090086840F080500860086844
:1006B00000F0805000900098072002B000F02CB8A5
:1006C00010B54EF60C5CCEF2000CDCF80030C3F333
:1006D000022E8EF00704042C28BF0424BEF103036D
:1006E0004FF0FF3E0EFA04F438BF0023A1439940B7
:1006F0000EFA03F39A43114300F00F0200F1604336
:100700000901043A03F564436244002848BF02F13A
:100710000C03197010BD00004EF60C51CEF2000112
:100720000A684FF6FF031A4060F30A2242F0806025
:1007300040F0FD7008607047002804BF012070473A
:100740002DE9F04143F60808C4F202080446D8F83F
:10075000F8030D4600F00700884207D288F8F853E6
:10076000D8F8F80300F00700A84277D12068810785
:1007700017D5410705D5D8F8001041F4E051C8F865
:100780000010010705D5D8F8001041F46041C8F801
:100790000010D8F80010A26821F0F0011143C8F849
:1007A0000010C00740D1D8F8F80300F00700A842B5
:1007B00007D988F8F853D8F8F80300F00700A842E2
:1007C0004CD12068410707D5D8F80010E26821F421
:1007D000E0511143C8F80010000708D5D8F8000010
:1007E000216920F4604040EAC100C8F8000000F030
:1007F0007DF8D8F8001041F21642C1F30311C0F69B
:100800000002515C40F2080220FA01F140F20400BB
:10081000C2F200000068C2F200021160FFF70EFF92
:100820000020BDE8F08100BF6068811E022907D268
:1008300058F8081C89015CBF0120BDE8F08111E077
:10084000012807D158F8081C89035CBF0120BDE8C6
:10085000F08107E058F8081C890703D40120BDE89F
:10086000F08100BFD8F8001021F003010843C8F858
:100870000000FFF7B3FE064641F28837D8F80000C3
:10088000616800F00C00B0EB810F8CD0FFF7A6FE82
:10089000801BB842F2D90320BDE8F08140F2080085
:1008A00043F60801C2F20000C4F2020100680968C0
:1008B00041F22642C1F38221C0F60002515CC840D9
:1008C0007047000040F2080043F60801C2F2000041
:1008D000C4F202010068096841F22642C1F34231C4
:1008E000C0F60002515CC8407047000010B543F6E6
:1008F0000404C4F20204606800F00C0142F20040FB
:100900000829C0F2F40007D0042918BF10BD41F235
:100910000020C0F27A0010BD216801F03F0221687A
:1009200023684902C3F3881106D4A1FB0001002308
:10093000FFF7B0FC07E000BF41F20020C0F27A00F0
:100940004843B0FBF2F021680222C1F3014102EBFF
:100950004101B0FBF1F010BD002804BF0120704739
:100960002DE9F04182B00446007843F60006C00746
:10097000C4F202060CD0B06800F00C00042840F06D
:1009800081803068800303D56068002800F06A81A8
:10099000207880071BD5B06810F00C0F09D0B06824
:1009A00000F00C00082840F087807068400200F1D9
:1009B00083803068800703D5E068012840F05281C9
:1009C0003068216920F0F80040EAC10030602078EA
:1009D000000713D4207840072AD4A569002D00F021
:1009E0003C81B06800F00C00082840F0A180012D87
:1009F00040F01081012002B0BDE8F081606900285C
:100A000040F20000C4F2472000F07E800121C0F8CF
:100A1000801EFFF7E3FD0546706F8007DAD4FFF70D
:100A2000DDFD401B0228F7D9032002B0BDE8F081AC
:100A3000306C5FEAC0080AD400200190306C40F0AE
:100A400080503064306C00F080500190019847F283
:100A50000007C4F200073868C00547D4386840F47E
:100A600080703860FFF7BAFD054600BF3868C005E2
:100A70003CD4FFF7B3FD401B0228F7D9032002B096
:100A8000BDE8F081B06800F00C00082803D1706860
:100A900040023FF576AF6068B0F5803F07D0B0F513
:100AA000A02F40F09B80306840F480203060306898
:100AB00040F4803030609BE0E06800285CD000208B
:100AC000C4F2472001210160FFF788FD054600BF01
:100AD000306880073FF574AFFFF780FD401B0228A8
:100AE000F6D9032002B0BDE8F08100BFA06801285C
:100AF00005D0052854D1306F40F004003067306FC6
:100B000040F00100306755E00021C0F8801EFFF77B
:100B100065FD0546706F80077FF55CAFFFF75EFDF2
:100B2000401B0228F6D9032002B0BDE8F08100BFC7
:100B30000027C4F2472700203866FFF74FFD022D3B
:100B400005460DD13068800140F19080FFF746FDE9
:100B5000401B02284FF00300F4D902B0BDE8F08139
:100B60003068800179D5FFF739FD401B02284FF02E
:100B70000300F5D9F1E700BF0020C4F247200021AF
:100B80000160FFF72BFD0546306880077FF51FAF3A
:100B9000FFF724FD401B02284FF00300F4D9DCE7E7
:100BA000316F002821F001013167316F21F004011C
:100BB00031677DD0FFF712FD054641F2883700BF4F
:100BC000306F800700F18680FFF708FD401BB842B8
:100BD000F6D9032002B0BDE8F08100BF31680028DB
:100BE00021F480313160316821F4802131607BD083
:100BF000FFF7F4FC054600BF306880033FF5C8AE40
:100C0000FFF7ECFC401B6428F6D9032002B0BDE8D6
:100C1000F08100BF7068E16900F480028A4221D14E
:100C2000216A00F03F028A421CD147F6C071626A15
:100C30000140B1EB821F15D1A16A4FF6FF73C903C2
:100C4000994300F44032A1F580318A420AD1E16A29
:100C500000F07060B0EB016F04D1002002B0BDE87D
:100C6000F08100BF012002B0BDE8F08104F11C0555
:100C70002FCD084340EA8210D9034FF6FF7291430B
:100C8000A1F5803140EA05600843706001203866B4
:100C9000FFF7A4FC044600BF30688001DDD4FFF7F5
:100CA0009DFC001B02284FF00300F5D955E700BF5B
:100CB000FFF794FC054641F2883700BF306F80078C
:100CC00008D5FFF78BFC401BB8424FF00300F5D965
:100CD00043E700BFB8F1000F3FF57FAE306C20F066
:100CE0008050306479E600BFFFF778FC054600BF0E
:100CF000306880037FF54CAEFFF770FC401B642822
:100D00004FF00300F4D928E7411E0020B0EB116F2B
:100D10001CBF012070474EF21002CEF2000251605B
:100D20004EF62351CEF20001F0230B7007219060A4
:100D300011607047002804BF0120704710B50446B9
:100D400090F8410028B9002084F84000204600F0C7
:100D500021F8242084F841002068C16821F4005162
:100D6000C160204600F090F92068016921F49041AB
:100D70000161416921F02A014161C16841F40051DA
:100D8000C16000202021606484F8411084F8421082
:100D9000606310BD2DE9F04385B0006844F600059E
:100DA000C4F20005A84203D005B0BDE8F08300BF3F
:100DB000002643F630000096C4F2020001696C463A
:100DC00041F48021016101694FF0020801F48021A2
:100DD00000910099009601684FF0030941F002016B
:100DE00001600168072701F0020100910099009657
:100DF000016841F0080101600068214600F0080028
:100E0000009000984FF40060009005F5DE30CDE9C9
:100E10000186CDF80C900497FFF70AFB4FF4807021
:100E2000CDE9000805F5E2302146CDE902690497D5
:100E3000FFF7FEFA05B0BDE8F08300002DE9F041B0
:100E4000044690F8410020281CBF0220BDE8F08134
:100E50000D4600294FF0010000F0AA801646002A36
:100E600008BFBDE8F081002060642120984684F826
:100E70004100FFF7B3FBA684E684A1680646B1F5FE
:100E8000805F02D12069002862D02F460025E08CC7
:100E9000002861D018F1010018D0B8F1000F37D147
:100EA000216808E017F8010B4860E08C0138E08405
:100EB000E08C002851D00868000673D5002FF1D1CE
:100EC00035F8020B00276FF35F20EDE7216802E0A1
:100ED0000868000609D40868000606D408680006F9
:100EE0005CBF08685FEA0060F2D51FB117F8010B1C
:100EF00005E000BF35F8020B00276FF35F20486064
:100F0000E08C0138E084E08C0028E4D125E000BFCB
:100F1000216800BF0868000608D4FFF75FFB801B4C
:100F2000404541D82168C868F4E700BF17B117F8F9
:100F3000010B04E035F8020B00276FF35F204860D7
:100F4000E08C0138E084E08C0028E3D105E000BFAC
:100F50000027E08C00289DD12168086840061FD436
:100F6000B8F1000F1ED018F101000FD1086840063B
:100F700016D40868400613D40868400610D40868E0
:100F800040064FF00000F1D50FE000BFFFF726FB51
:100F9000801B404508D82068C16800684006F5D528
:100FA000002002E0FFF71AFB0320202184F8411003
:100FB000BDE8F081FEE70000FEE70000FEE700006C
:100FC0007047000070470000FFF70EBBB0B592B04D
:100FD000002443F640000B94CDE90944CDE90744D1
:100FE0000594CDE90344CDE901440094C4F2020024
:100FF0000168022541F080510160006800F08050D6
:101000000090009847F200000094C4F200000168CC
:1010100041F480410160006800F480400090009835
:101020000120099010200A9008200E90A820CDE9F8
:101030000F050720119006A80695CDE90C54FFF77F
:101040008BFC18B172B600BFFEE700BF0F20CDE9E0
:1010500001054FF4A05004904FF48050059001A872
:1010600005210394FFF768FB10B172B6FEE700BFDD
:1010700012B0B0BD4EF68850CEF20000016841F4C7
:10108000700101607047000010B504460068D4E9A3
:1010900002C22369016921F440511143016162696F
:1010A00043EA0C01E3691143C268194349F20C6336
:1010B0009A431143C1604169A26921F4407141F230
:1010C0000043114340F48062C4F201039A4241613B
:1010D00002D1FFF7F7FB01E0FFF7E0FBE16963688E
:1010E0001922B1F5004FA0FB020123D15A00DB0FFA
:1010F000FFF7D0F848F21F51C5F2EB11A0FB012316
:101100005A094FF69C73C0F6FF7303F1805302FB3C
:101110000300322303EBC000A0FB01014FF4F87081
:1011200000EA111000EB0210C1F3421108442168DB
:10113000886010BD9A009B0FFFF7ACF848F21F5172
:10114000C5F2EB11A0FB01235A094FF69C73C0F6C0
:10115000FF7302FB0300322303EB0010A0FB01012D
:10116000F02000EA511000EB0210C1F343110844D3
:101170002168886010BD0000FEE7000088B0FFF71E
:1011800041FAFFF723FF002443F63000079402944E
:10119000C4F20200016840F2000A41F0100101604F
:1011A0000168C4F2020A01F010010291029902944E
:1011B00001680AF5805741F00401016001680022CE
:1011C00001F0040102910299029401684FF00809AC
:1011D00041F080010160016801F0800102910299F3
:1011E0000294016841F001010160016801F0010110
:1011F000029102990294016841F0020101600168C4
:1012000001F00201029102990294016841F0080183
:1012100001600068082100F008000290029838463A
:101220000197FFF7D5F90AF5006840460121012230
:101230000125FFF7CDF90AF540604FF210010022B9
:101240000090FFF7C5F903AE38463146CDE9039566
:10125000CDE90544FFF7ECF840463146CDE90355AA
:10126000CDE90544FFF7E4F8CDF80C904FF0020B00
:101270004FF0050940463146CDE904B40694CDF857
:101280001C90FFF7D5F84FF48810CDE904045046C0
:1012900031460395FFF7CCF81020CDE9030B06206B
:1012A000079050463146CDE90544FFF7C1F8E020EC
:1012B000CDE9030B50463146CDE90544CDF81C90ED
:1012C000FFF7B6F804200AF58067CDE90304384635
:1012D00031460594FFF7ACF84FF48060CDE9030B7D
:1012E00038463146CDE90544CDF81C90FFF7A0F80B
:1012F0004FF21000CDE90305009D31462846CDE9A7
:101300000544FFF795F84FF4A450CDE9030B0620F0
:10131000079040463146CDE90544FFF789F84FF480
:101320000070CDE90304504631460594FFF780F87C
:101330004FF4E050CDE9030B0A20079050463146A8
:10134000CDE90544FFF774F82020CDE903042846D1
:1013500031460594FFF76CF84FF41070039012209B
:10136000CDE9040404200790384631460694FFF77F
:101370005FF84FF49010CDE9040401983146CDF8A0
:101380000CB0FFF755F840F27000AAF5DC31C2F25C
:1013900000000C234FF4E13280E81600C0E903445A
:1013A000C0E90534C461FFF7C5FC18B172B600BFCF
:1013B000FEE700BF47F24650C6F26C1003908DF86E
:1013C00010407B2040F27004C5F65520C2F20004A4
:1013D00003ADCDF81100204629460A224FF0FF3315
:1013E000FFF72CFD204629460A224FF0FF33FFF776
:1013F00025FD4FF47A70FFF707F8F3E7F1EE100AD6
:101400004FF6FF71C0F2C03120EA010040F0407099
:10141000E1EE100A70470000000000000000010229
:10142000030406070809000000000102030400008D
:10143000501400080000002010000000EC0100081B
:101440006014000810000020B00600000C02000824
:1014500001000000100000000024F4000000000063
:040000050800018965
:00000001FF
