:020000040800F2
:10000000600600203902000841020008430200088F
:1000100045020008470200084902000800000000ED
:100020000000000000000000000000004B0200087B
:100030004D020008000000004F02000851020008B5
:10004000530200085302000853020008530200083C
:10005000530200085302000853020008530200082C
:10006000530200085302000853020008530200081C
:10007000530200085302000853020008530200080C
:1000800053020008530200085302000853020008FC
:1000900053020008530200085302000853020008EC
:1000A00053020008530200085302000853020008DC
:1000B00053020008530200085302000853020008CC
:1000C00053020008530200085302000853020008BC
:1000D00053020008530200085302000853020008AC
:1000E000530200085302000853020008530200089C
:1000F000530200085302000853020008530200088C
:10010000530200085302000853020008530200087B
:10011000530200085302000853020008530200086B
:10012000530200085302000853020008530200085B
:10013000530200085302000853020008530200084B
:10014000530200085302000853020008530200083B
:10015000530200085302000853020008530200082B
:10016000530200085302000853020008530200081B
:100170005302000853020008530200080000000068
:10018000530200085302000800F002F800F044F89F
:1001900014A696E8000CB244B344DA4501D100F04D
:1001A0003BF8BAE80F000FA696E83000A5EB04056F
:1001B00004EB0607AAEB0704A7F101074FEA1515A0
:1001C0004FEA3414A4F10104AC4201D300F024F846
:1001D00013F0010F18BFFB1A43F0010300F001F800
:1001E000DBE71847CC020000DC020000704700008B
:1001F0000023002400250026103A28BF78C1FBD830
:10020000520728BF30C148BF0B6070471FB500F0D0
:1002100041F91FBD10B510BD00F031F81146FFF7D0
:10022000F5FF00F013F900F04FF803B4FFF7F2FF09
:1002300003BC00F057F80000094880470948004710
:10024000FEE7FEE7FEE7FEE7FEE7FEE7FEE7FEE786
:10025000FEE7FEE704480549054A064B70470000E3
:1002600021040008890100086000002060060020C9
:10027000600200206002002070477047704775469A
:1002800000F02CF8AE4605006946534620F0070002
:10029000854618B020B5FFF7DDFFBDE820404FF0E0
:1002A00000064FF000074FF000084FF0000BAC467F
:1002B000ACE8C009ACE8C009ACE8C009ACE8C009CA
:1002C00021F007018D46704710B50446AFF300805A
:1002D0002046BDE81040FFF7A8BF00000048704767
:1002E0000000002001491820ABBEFEE726000200F6
:1002F0007047000043F63001C4F20201086840F084
:100300000800086040F60041C4F20201086840F0AD
:100310008070086040F60441C4F2020100200860C9
:1003200040F60841C4F202010860704781B043F60C
:100330000001C4F20201086840F480300860FFE761
:1003400043F60000C4F2020000688003002801D4D4
:10035000FFE7F5E743F64001C4F20201086840F008
:100360008050086047F20001C4F20001086840F4C0
:100370008040086043F60041C4F202010091086821
:1003800040F480700860086840F4007008600868F5
:1003900040F480600860086840F00500086043F69B
:1003A0000801C4F20201086800200860086840F4EF
:1003B000A0500860086840F40040086043F604015B
:1003C000C4F2020142F60420C0F24000086043F685
:1003D0000001C4F20201086840F080700860FFE785
:1003E00043F60000C4F2020000688001002801D436
:1003F000FFE7F5E743F60801C4F20201086840F0A0
:1004000002000860FFE743F60800C4F2020000683B
:1004100000F00C00082801D0FFE7F4E701B07047B6
:100420004EF68851CEF20001086840F47000086072
:100430007047000081B00090FFE70098411E0091D6
:1004400008B1FFE7F9E701B07047000080B582B05E
:1004500000200190FFF76AFFFFF74CFFFFE740F62F
:100460001841C4F202010091086840F4805008600D
:100470004CF28030C0F2C910FFF7DCFF0099086829
:1004800040F08050086049F28060C0F29800FFF7A9
:10049000D1FFE4E7F1EE100A4FF6FF71C0F2C03170
:1004A00020EA010040F04070E1EE100A70470000C1
:1004B000C00400080000002060060000F0010008F1
:0400000508000239B4
:00000001FF
