:020000040800F2
:10000000E80600207502000801250008711E00089E
:10001000FD240008C50D0008CD25000800000000E3
:10002000000000000000000000000000092500089A
:10003000C90D000800000000052500080D25000876
:100040008F0200088F0200088F0200088F0200084C
:100050008F0200088F0200088F0200088F0200083C
:100060008F0200088F0200088F0200088F0200082C
:100070008F0200088F0200088F0200088F0200081C
:100080008F0200088F0200088F0200088F0200080C
:100090008F0200088F0200088F0200088F020008FC
:1000A0008F0200088F0200088F0200088F020008EC
:1000B0008F0200088F0200088F0200088F020008DC
:1000C0008F0200088F0200088F0200088F020008CC
:1000D0008F0200088F0200088F0200088F020008BC
:1000E0008F0200088F0200088F0200088F020008AC
:1000F0008F0200088F0200088F0200088F0200089C
:100100008F0200088F0200088F0200088F0200088B
:100110008F0200088F0200088F0200088F0200087B
:100120008F0200088F0200088F0200088F0200086B
:100130008F0200088F0200088F0200088F0200085B
:100140008F0200088F0200088F0200088F0200084B
:100150008F0200088F0200088F0200088F0200083B
:100160008F0200088F0200088F0200088F0200082B
:100170008F0200088F0200088F02000800000000B4
:100180008F0200088F02000800F002F800F062F809
:1001900014A696E8000CB244B344DA4501D100F04D
:1001A00059F8BAE80F000FA696E83000A5EB040551
:1001B00004EB0607AAEB0704A7F101074FEA1515A0
:1001C0004FEA3414A4F10104AC4201D300F042F828
:1001D00013F0010F18BFFB1A43F0010300F001F800
:1001E000DBE718478C390000AC390000103A24BF17
:1001F00078C878C1FAD8520724BF30C830C144BF8C
:1002000004680C6070470000704700000023002461
:1002100000250026103A28BF78C1FBD8520728BF16
:1002200030C148BF0B607047662903F040846429E1
:1002300000F0F480002070471FB503F026FC00F0AA
:100240004DFC04000020002103F0BEF8E0601FBD5B
:1002500010B510BD00F042FD1146FFF7EDFF02F0B2
:1002600097FA00F060FD03B4FFF7F2FF03BC00F063
:10027000A1FD00000948804709480047FEE7FEE766
:10028000FEE7FEE7FEE7FEE7FEE7FEE7FEE7FEE746
:1002900004480549054A064B70470000B925000887
:1002A00089010008E8000020E8060020E80200209C
:1002B000E802002053EA020C00F069802DE9F04BBF
:1002C0004FF00006002B1FBFB3FA83F503FA05F4C5
:1002D00024FA05F65E4012BF1643B2FA82F502FA1E
:1002E00005F4C5F120051EBF22FA05FC44EA0C0402
:1002F000203556EA044C4FEA144418BF641C4FF0F2
:1003000000084FF00009904271EB030C39D300292B
:1003100019BFB1FA81F701FA07F6B0FA80F700FACF
:1003200007F6C7F120071EBF20FA07FC46EA0C06B5
:100330002037B6FBF4FCA7EB0507103F07F01F0BB7
:10034000CBF120062CFA06F60CFA0BFB44BFB346A1
:100350000026202FA4BF5E464FF0000B5BEA060C80
:1003600008BF4FF0010B19EB0B0948EB0608ABFB7C
:10037000027C06FB02CC0BFB03CCC01B71EB0C0117
:10038000C1E70B46024641464846BDE8F08B13B52F
:10039000084318BF4FF0FF300146AFF30080BDE8BF
:1003A0001C4070470FB41CB5074B06AA7B44694636
:1003B0000090059800F079FB0020694600F088FB6A
:1003C0001CBC5DF814FB00002107000070B504465A
:1003D00085690068C10601D5302600E02026C007E7
:1003E00007D070BDD4E9012130469047206A401CF7
:1003F00020626D1EF6D570BD70B504468569007823
:10040000C00707D170BDD4E9012120209047206AA0
:10041000401C20626D1EF6D570BD00002DE9F04134
:100420000646002410687529314616A510D0AFF392
:100430000080002802DA404213A507E031688A07ED
:1004400001D512A502E0490704D511A5012401E058
:10045000AFF3008000210A2206F1240709E0B0FB77
:10046000F2FCB0FBF2F302FB1C003030785418466B
:10047000491C0028F3D123462A463046BDE8F04106
:1004800000F0A7B8000000002D0000002B000000C5
:10049000200000002DE9F05F894604464FF0000A75
:1004A000DFF824B1FB44C0F820A02046E16888476B
:1004B00000287DD0252806D0D4E901219047206A64
:1004C000401C2062F1E700255F462046E16888472E
:1004D0002028064607DB312E05D2B81910F8200C6B
:1004E00008B10543F1E7A80701D525F00405C4F8D4
:1004F0001CA00027C4F818A02A2E09D0304602F00C
:100500005BFF38B304EB8708303EC8F8186019E089
:1005100059F8041B204604EB87029161E168884783
:10052000012F064618D1E069002820DA25F02005C1
:100530001DE0D8F8180000EB800006EB40003038D2
:10054000C8F818002046E1688847064602F034FFE4
:100550000028EED1012F0AD02E2E08D12046E168C6
:1005600088477F1C0646022F45F02005C4DBA069A2
:10057000002803DA404245F00105A061E80701D0F8
:1005800025F01005A6B1A6F14100192802D82036A1
:1005900045F400654A463146204625604D46FFF742
:1005A00043FE60B1012807D0ED1D25F0070000E0F3
:1005B00007E000F1080978E705F1040975E730461E
:1005C0007AE7206ABDE8F09F0A360000704770475E
:1005D00070472DE9F0470D4699469246044600F1D2
:1005E00024080168880604D5E06921F01001216023
:1005F00000E00120A84201DD471B00E00027A169BF
:100600007A1902EB0900081AA0612078C00602D40A
:100610002046FFF7DBFE002608E0D4E901211AF8A6
:1006200006009047206A401C761C20624E45F4DB91
:100630002078C0060AD52046FFF7C8FE06E0D4E9B8
:10064000012130209047206A401C2062381EA7F10B
:100650000107F4DC07E0D4E9012118F80500904710
:10066000206A401C2062281EA5F10105F3DC20460B
:10067000FFF7C2FE2078000602D50220BDE8F08711
:100680000120FBE72DE9FF4F0C461E464FF0FF37D8
:100690008BB0D2E90001DDF860800A908A46C1F390
:1006A0000A5505B93D46002108464FF00000BAF151
:1006B000000F00F4400005DA00EB80004FF4400129
:1006C00001EA50004FEA9059B9F1010F00DDB94637
:1006D0000A9850EA4A000ED044F61050A5F2FF35B1
:1006E00045432F14B8F1000F1ED07542291E1EDDA0
:1006F000C9F100021CE0B8F1010F4FF0000001D079
:10070000302103E0F24305E02154401CB042FBDB02
:1007100030460022002121540B99C1F80880C1E91C
:1007200000200FB0BDE8F08FBD1B6D1CDEE74A4610
:1007300000DA694206A800F05BFA06AB93E807000E
:1007400003AB83E8070050460A9902F055FA8DE89A
:100750000700A0F500501F3800900398002D0ADD17
:1007600042F21F014A460844002303A90390684649
:1007700002F0BEFC09E0A0F500504A461F380023F5
:1007800003A90390684602F0C8FC8DE80700000446
:10079000000C03D04FF0FF30410800E01046B8F1E4
:1007A000000F03D00022009215461EE0751E05D4EE
:1007B00000F098F9303262556D1EF9D5B34601222A
:1007C000084302D000227F1C04E02078302801D1A9
:1007D00000227F1E002A099784D01DE0112D07DA20
:1007E00000F080F9303262556D1C50EA0102F5D1FB
:1007F000084302D00098C8B10EE00021681E05E051
:10080000235C625C63542254401E491C8142F7DB26
:10081000AB46A81B401E0990002004F80B000B9863
:10082000099AC0F80880C0E9002B7AE711264FF03A
:10083000000857E72DE9F04F88460446D21D22F004
:10084000070191B0D1E90001CDE90A0102F09CFD58
:1008500002460B98C00F01D02D2007E020688107C9
:1008600001D52B2002E0202101EAC000032A0990D3
:1008700001D0072A05DB03464146204600F078F9FF
:100880000BE12078800601D5E06900E00620B8F190
:10089000650F814606D0B8F1660F18D0B8F1670F22
:1008A00070D131E00020B9F1110F009001DB11236C
:1008B00001E009F101030AAA01A90CA8FFF7E2FE71
:1008C000DDE90C70002609F10105834647E00120AF
:1008D0004B4600904FF000470AAA01A90CA8FFF769
:1008E000D1FEDDE90DB00C995D46002610B909F185
:1008F00001000D18B9EB050003D4C0F1FF3609F172
:100900000105A5EB09002BE0B9F1010F01DA4FF069
:1009100001090020B9F1110F0090484601DD1123B3
:1009200000E003460AAA01A90CA8FFF7ABFEDDE927
:100930000C704D4600268346207800070AD4AB454C
:1009400000DA5D4601A8012D04DD411911F8011CF2
:10095000302907D04F4502DA17F1040F04DA0120DD
:1009600082460FE06D1EEEE7002F02DCED1B3E44D9
:1009700003E0781CA84200DD7D1CB81B00F1010AD1
:100980004FF000472078000703D4AA4501DB4FF061
:10099000FF3A0021B7F1004F0DF143088DF84310E5
:1009A00024D002202B23002F01DA7F422D230A219D
:1009B000021EA0F1010000DC5FB197FBF1FC97FB88
:1009C000F1F201FB1C7C17460CF1300C08F801CD4C
:1009D000EEE7A8F1010003702188090501D5452142
:1009E00000E06521A0F1010800F8011C09980FA999
:1009F000A1EB0807FF1D00B10120411901EBEA70CE
:100A0000A1693844081A401EA0612078C00602D4AB
:100A10002046FFF7DBFC099828B1D4E90121904773
:100A2000206A401C20622078C00622D52046FFF7AD
:100A3000CDFC1EE0002E04DBB34502DD01A8805D85
:100A400000E03020D4E901219047206A401C206258
:100A5000761CAAF101005FEA000A0AD100F03EF814
:100A6000C0680168405CD4E901219047206A401CBD
:100A70002062281EA5F10105DCDC07E0D4E9012194
:100A800018F8010B9047206A401C2062381EA7F11D
:100A90000107F3DC2046FFF7AFFC032011B041E66D
:100AA00001694A1C02610878704700B58FB0CDE932
:100AB00001310021059105497944CDE90310114622
:100AC0006846FFF7E7FC0FB000BD0000E5FFFFFF41
:100AD0000A6802F8010B0A6070470000004870477E
:100AE0003000002030B5B0F10A0271F100034FEA86
:100AF000900E4EEA817EB0EB0E0061EB91014FEA61
:100B0000101E4EEA017E10EB0E0041EB11114FEA70
:100B1000102E4EEA016E10EB0E0041EB11214FEA50
:100B2000104E4EEA014E10EB0E0041EB1141401801
:100B300041F100014FEAD00040EA41704FEAD10193
:100B40004FEA810444EA907410EB800544EB010401
:100B50006D1944EB0404521BA3414FF0000348BF3E
:100B60000A3200D530BD401C41F1000130BD00000B
:100B70002DE9F0411F46044603260168072A01F4C7
:100B8000006004DB08B116A505E016A503E008B176
:100B900015A500E015A521F010002060A069C01E79
:100BA000A0610FB1401EA0612046FFF70FFC4FB1BE
:100BB000D4E9012138469047206A401C2062C01CBD
:100BC000206206E0206AFAE7D4E9012115F8010B5A
:100BD0009047761EF8D22046FFF70EFCBDE8F08164
:100BE0004E414E006E616E00494E4600696E6600D1
:100BF0002DE9F047814616468AB0354878440DC83D
:100C00008DE80D0032487844801C03AC0DC884E8A0
:100C10000D0041F69B300844372190FBF1F290FB28
:100C2000F1F5A5F1800501FB12041B3C02D56442DD
:100C3000012000E00020DFF898A080460027FA4459
:100C4000AAF1BE0A0EE0E0070AD03246684607EB7A
:100C5000470101230AEB810102F05FFA8DE80700EA
:100C600064107F1C002CEED1194F7F44AE3F19E079
:100C7000E80715D007EB04100DF1180A90E80E00F4
:100C80008AE80E00C068F04201D1981908903246F7
:100C9000012306A903A802F040FA03AB83E807008A
:100CA0006D10641C002DE3D14FF0010332466946FC
:100CB000B8F1000F03A802D002F01AFA01E002F026
:100CC0002CFAC9E90001C9F808200AB0BDE8F0878C
:100CD000402F000000487047100000207546FFF7C5
:100CE000F9FFAE4605006946534620F007008546E9
:100CF00018B020B5FFF7CCFABDE820404FF0000651
:100D00004FF000074FF000084FF0000BAC46ACE886
:100D1000C009ACE8C009ACE8C009ACE8C00921F0E2
:100D200007018D46704710B50446AFF3008020469A
:100D3000BDE81040FFF797BA30B44FF0013C50F8CF
:100D4000042B51F8043BCCFA52F4D51A20D1FCB94B
:100D500050F8042B51F8043BCCFA52F4D51A17D1B1
:100D6000B4B950F8042B51F8043BCCFA52F4D51A1C
:100D70000ED16CB950F8042B51F8043BCCFA52F464
:100D8000D51A05D1002CDAD030BC4FF000007047E6
:100D900029BAB1FA81F111F01801D1F12000844093
:100DA000F2D1CA40CB4012F0FF0213F0FF0330BC77
:100DB000D01A704701491820ABBEFEE7260002009A
:100DC00070470000FEE7000070470000B0B5044621
:100DD00000F0E6F8054640F20000C2F2000000789C
:100DE000611C18BF044400BF00F0DAF8401BA042A9
:100DF000FAD3B0BD2DE9F04F82B000F13E4707F1C4
:100E0000FF77860546EA972741F60046C4F20206B8
:100E1000082243F6004EB04208BF0722C4F2010E7A
:100E2000072F38BF3A46002600274FF000080092EF
:100E300009E000BF08F101080237B8F1100F06F110
:100E4000040600F0A3800D68012202FA08F415EAF6
:100E50000409EFD0D1F804B003220BF0030CACF17D
:100E60000105BA40012D6FEA020A0FD88268CD68E9
:100E700002EA0A02BD402A4382604268A243CBF3E1
:100E8000001404FA08F42243426005E0BCF1030FA9
:100E900002D14FF0030C1EE0C2688C6802EA0A021D
:100EA000BC402243BCF1020FC26014D16FF00302B8
:100EB00002EA58020244D2F820C006F01C040F23B4
:100EC0000D69A3402CEA0303A5402B431362D1F81C
:100ED00004B00BF0030C02680CFA07F302EA0A02F2
:100EE0001A431BF4403F0260A4D0002243F644039F
:100EF0000192C4F202031A684FF6084C42F4804291
:100F00001A601A68CFF6FF7C02F480420192019ABF
:100F100028F00302724452F80C3006F00C050F243E
:100F2000AC40A343009C04FA05F52B4342F80C3077
:100F3000DEF808204B6842EA090543F60C4CDC0257
:100F400058BF22EA0905CEF80850C4F2010CDCF8BB
:100F500000209C0242EA090558BF22EA0905CCF8A4
:100F60000050DEF804209C0342EA090558BF22EA3B
:100F70000905CEF80450DEF80020DB0342EA09053B
:100F800058BF22EA0905CEF8005053E702B0BDE889
:100F9000F08F0000002A08BF09048161704700003B
:100FA00040F2E000C2F2000000687047002804BF71
:100FB00001207047F0B581B0044690F83D0028B993
:100FC000002084F83C00204600F06AFB242084F8CE
:100FD0003D002068016821F001010160016841F4D1
:100FE00000410160016821F40041016000F008FD4A
:100FF000636848F2A16CC0F2010C40F60011C0F227
:101000003D0163453CBF48F28041C0F21E01884269
:1010100002D2012001B0F0BD4DF68361C4F21B3154
:10102000A0FB01122168970CD1F804E04FF49676EA
:101030002EF03F0545EA92454D60774348F6381655
:101040000D6AC0F24106A7FB067625F03F0763450F
:1010500038BF960C721C3A430A62CA6948F2A0660D
:101060004CF6FF77C0F20106B34222EA07020BD822
:1010700001385B00B0FBF3F001306FF31F30042840
:1010800098BF04201BE000BFA768013857B119279B
:101090007B43B0FBF3F001306FF31F3070B100F50C
:1010A000804007E003EB4303B0FBF3F001306FF344
:1010B0001F3018B100F5004001E000BF01201043CF
:1010C000C8610868D4E9072320F0C0001043184322
:1010D0000860886848F2FF3204F10C0790438CCF17
:1010E00018431043A6698860C86820F0FF003843A1
:1010F0003043C860086840F00100086000202021EB
:10110000206484F83D10206384F83E0001B0F0BDF7
:101110002DE9F04383B01E46174689460446FFF783
:101120003FFF94F83D10202924D10546206800BFD8
:10113000816989071AD5FFF733FF411B20681A29F7
:10114000F6D381698907F3D500202021206384F834
:101150003D1084F83E00216C41F02001216484F8A8
:101160003C00022003B0BDE8F08300BF94F83C10BF
:10117000012903D1022003B0BDE8F083012184F8E6
:101180003C100168C90703D1016841F00101016009
:10119000016840F2020821F400610160212184F815
:1011A0003D10102184F83E1000212164676266859D
:1011B000618DC0F201082185A8F10211E162E16AA6
:1011C0000A9E11F5803F18BF01291DD1016841F425
:1011D0008071016020464FF00111002233460095D6
:1011E00000F094FF50B120680068C00544BF4FF480
:1011F00000702064012003B0BDE8F0832069B0F5E1
:10120000804F07D1FE2015E00829DFD0216B12297D
:10121000DCD0DFE7062000EAD9102168F030086151
:1012200008F10601204632462B4601F055F8002809
:10123000E0D1FF20216800EA09000861204641460C
:1012400032462B4601F048F80028D3D10020029006
:1012500020684169029180690290029806E000BF0F
:10126000204631462A4600F0F3FE18BB208D68B3B5
:10127000204631462A4601F0E3F8D8B9606A216871
:10128000024612F8013B0B616262628D013A62858F
:10129000228D531E23854F697F07E1D51B04DFD0C4
:1012A000437802300B616062608D01386085901E6A
:1012B0002085D5E7206C04289CD12068016841F482
:1012C00000710160012003B0BDE8F083206801686F
:1012D00041F400710160202084F83D00002084F872
:1012E0003E0084F83C0003B0BDE8F0832DE9F047F0
:1012F00084B0994616460F460446FFF751FE94F80F
:101300003D10202927D10546206800BF8169890743
:101310001CD5FFF745FE411B20681A29F6D38169C9
:101320008907F3D500202021206384F83D1084F83C
:101330003E00206C04F13C0A40F0200020640220B2
:1013400000218AF8001004B0BDE8F087A2461AF820
:101350003C1F012904D1022004B0BDE8F08700BF82
:1013600001228AF800200368DDE90D180C9ADB07DA
:1013700003D1036843F001030360036823F40063AF
:101380000360222084F83D00402084F83E000020C5
:10139000206462626185608D394620850020CFF629
:1013A000FF70E062204632464B46CDE9008500F0F2
:1013B00061FD18B1012004B0BDE8F087208DA8B10F
:1013C00002282BD0012835D121680A6822F48062D6
:1013D0000A60002203924A6903928A690392039A7F
:1013E0000A6842F400720A602CE000BF00200390FB
:1013F000206841690391816903910399016841F46F
:1014000000710160202084F83D00002084F83E0037
:1014100000218AF8001004B0BDE8F08721680A684E
:1014200022F480620A600A6842F400620A600022C4
:10143000039202E00021039121684A6903928969BD
:10144000039103990427C0F201070CE010690870AA
:10145000606A218D01306062481E2085618D0139EE
:1014600061850104CED080B203280FD802284AD06B
:1014700001282DD1204641462A4600F099FF002838
:1014800098D12068616A0069E1E700BF20464146C3
:101490002A4600F08DFF00287FF48CAF2068616A37
:1014A00000690870606A2268411C208D6162013801
:1014B0002085638D013B638553695B07D1D580B27D
:1014C0000328C3D1106820F480601060BEE700BF1D
:1014D0002046394600224346009500F017FE0028BA
:1014E0007FF468AF2068616A026822F4806202605B
:1014F00000690870606A218D01306062481E208595
:10150000608D0138608520463946002243460095AB
:1015100000F0FCFD00287FF44DAF2068616A02688E
:1015200042F40072026000690870606A2268411C1F
:101530006162218D01392185618D013961851169D2
:10154000417085E72DE9F04383B0994616460F4672
:101550000446FFF725FD94F83D10202924D10546C7
:10156000206800BF816989071AD5FFF719FD411B63
:1015700020681A29F6D381698907F3D50020202134
:10158000206384F83D1084F83E00216C41F0200176
:10159000216484F83C00022003B0BDE8F08300BF62
:1015A00094F83C10012903D1022003B0BDE8F08378
:1015B000012284F83C200368DDE90B180A9ADB0756
:1015C00003D1036843F001030360036823F400635D
:1015D0000360212084F83D00402084F83E00002074
:1015E000206462626185608D394620850020CFF6D7
:1015F000FF70E062204632464B46CDE9008500F0A0
:10160000C3FC18B1012003B0BDE8F083208D98B968
:10161000204641462A4600F01BFD88B3206C042872
:10162000F0D12068016841F400710160012003B02D
:10163000BDE8F0830004EBD0204641462A4600F086
:10164000FFFE0028EAD1616A2268084610F8013BD3
:101650001361238D6062581E2085678D013F678569
:1016600057697F07E6D50704E4D048781061881CE5
:101670006062981E2085618D01396185DAE700BFBF
:101680002068016841F400710160202084F83D0069
:10169000002084F83E0084F83C0003B0BDE8F083ED
:1016A0002DE9F04786B0006845F60047C4F2000710
:1016B000B84203D006B0BDE8F08700BF002643F66D
:1016C00030050196C4F20205286801AC40F0040020
:1016D000286028684FF0120800F00400019001987B
:1016E000019628684FF0030940F00100286028683F
:1016F0004FF0040A00F00100019001984FF40070CF
:10170000019007F5D6302146CDE90286CDF810903C
:10171000CDF814A0FFF76EFB4FF48070CDE90108FF
:1017200003A880E8400607F5D2302146FFF762FBA8
:101730000096286940F400002861286900F4000040
:101740000090009806B0BDE8F087000040F200006D
:1017500040F2E001C2F20000C2F2000100780A6823
:10176000104408607047000080B543F60040C4F2A2
:101770000200016841F400710160016841F4806178
:101780000160016841F480710160032000F076F887
:10179000002000F005F800F027F8002080BD0000D0
:1017A00070B540F20006C2F2000640F2080132783D
:1017B000C2F200014FF47A730968B3FBF2F20446F7
:1017C000B1FBF2F1084600F03DFB0F2C4FF0010594
:1017D00008D838B94FF0FF3021460022002500F02C
:1017E00021F87460284670BD82B0002043F64001A5
:1017F0000190C4F202014A6842F480424A604A6899
:1018000002F480420192019A0090086840F08050F2
:101810000860086800F0805000900098072002B02F
:1018200000F02CB810B54EF60C5CCEF2000CDCF8D3
:101830000030C3F3022E8EF00704042C28BF0424CA
:10184000BEF103034FF0FF3E0EFA04F438BF00234D
:10185000A14399400EFA03F39A43114300F00F029B
:1018600000F160430901043A03F56443624400282F
:1018700048BF02F10C03197010BD00004EF60C5168
:10188000CEF200010A684FF6FF031A4060F30A2205
:1018900042F0806040F0FD7008607047002804BF8F
:1018A000012070472DE9F04143F60808C4F2020810
:1018B0000446D8F8F8030D4600F00700884207D226
:1018C00088F8F853D8F8F80300F00700A84277D159
:1018D0002068810717D5410705D5D8F8001041F4D5
:1018E000E051C8F80010010705D5D8F8001041F400
:1018F0006041C8F80010D8F80010A26821F0F0018B
:101900001143C8F80010C00740D1D8F8F80300F020
:101910000700A84207D988F8F853D8F8F80300F070
:101920000700A8424CD12068410707D5D8F800101D
:10193000E26821F4E0511143C8F80010000708D50F
:10194000D8F80000216920F4604040EAC100C8F8DE
:10195000000000F069F8D8F8001043F65832C1F3DF
:101960000311C0F60002515C40F2080220FA01F1B6
:1019700040F20400C2F200000068C2F200021160EE
:10198000FFF70EFF0020BDE8F08100BF6068811EF8
:10199000022907D258F8081C89015CBF0120BDE864
:1019A000F08111E0012807D158F8081C89035CBFB9
:1019B0000120BDE8F08107E058F8081C890703D42E
:1019C0000120BDE8F08100BFD8F8001021F003012C
:1019D0000843C8F80000FFF7E3FA064641F28837EB
:1019E000D8F80000616800F00C00B0EB810F8CD0DB
:1019F000FFF7D6FA801BB842F2D90320BDE8F08188
:101A000040F2080043F60801C2F20000C4F20201ED
:101A10000068096843F66832C1F38221C0F600020B
:101A2000515CC8407047000010B543F60404C4F28E
:101A30000204606800F00C0142F200400829C0F284
:101A4000F40007D0042918BF10BD41F20020C0F2F5
:101A50007A0010BD216801F03F0221682368490225
:101A6000C3F3881106D4A1FB00010023FEF722FC7A
:101A700007E000BF41F20020C0F27A004843B0FB0B
:101A8000F2F021680222C1F3014102EB4101B0FBF7
:101A9000F1F010BD002804BF012070472DE9F0418E
:101AA00082B00446007843F60006C007C4F202067E
:101AB0000CD0B06800F00C00042840F08180306841
:101AC000800303D56068002800F06A8120788007D1
:101AD0001BD5B06810F00C0F09D0B06800F00C00F6
:101AE000082840F087807068400200F183803068E9
:101AF000800703D5E068012840F0528130682169F1
:101B000020F0F80040EAC10030602078000713D4CC
:101B1000207840072AD4A569002D00F03C81B068E8
:101B200000F00C00082840F0A180012D40F0108149
:101B3000012002B0BDE8F0816069002840F2000099
:101B4000C4F2472000F07E800121C0F8801EFFF71C
:101B500027FA0546706F8007DAD4FFF721FA401B99
:101B60000228F7D9032002B0BDE8F081306C5FEAAB
:101B7000C0080AD400200190306C40F080503064DE
:101B8000306C00F080500190019847F20007C4F2D9
:101B900000073868C00547D4386840F48070386062
:101BA000FFF7FEF9054600BF3868C0053CD4FFF7D3
:101BB000F7F9401B0228F7D9032002B0BDE8F081F5
:101BC000B06800F00C00082803D1706840023FF5AF
:101BD00076AF6068B0F5803F07D0B0F5A02F40F039
:101BE0009B80306840F480203060306840F4803062
:101BF00030609BE0E06800285CD00020C4F2472001
:101C000001210160FFF7CCF9054600BF306880076D
:101C10003FF574AFFFF7C4F9401B0228F6D9032043
:101C200002B0BDE8F08100BFA068012805D00528FA
:101C300054D1306F40F004003067306F40F0010045
:101C4000306755E00021C0F8801EFFF7A9F905466E
:101C5000706F80077FF55CAFFFF7A2F9401B022889
:101C6000F6D9032002B0BDE8F08100BF0027C4F21E
:101C7000472700203866FFF793F9022D05460DD15E
:101C80003068800140F19080FFF78AF9401B0228FC
:101C90004FF00300F4D902B0BDE8F0813068800154
:101CA00079D5FFF77DF9401B02284FF00300F5D9E5
:101CB000F1E700BF0020C4F2472000210160FFF7D8
:101CC0006FF90546306880077FF51FAFFFF768F9A9
:101CD000401B02284FF00300F4D9DCE7316F0028E5
:101CE00021F001013167316F21F0040131677DD0AE
:101CF000FFF756F9054641F2883700BF306F80077D
:101D000000F18680FFF74CF9401BB842F6D903205A
:101D100002B0BDE8F08100BF3168002821F48031B5
:101D20003160316821F4802131607BD0FFF738F9D0
:101D3000054600BF306880033FF5C8AEFFF730F9B5
:101D4000401B6428F6D9032002B0BDE8F08100BF33
:101D50007068E16900F480028A4221D1216A00F0B2
:101D60003F028A421CD147F6C071626A0140B1EB62
:101D7000821F15D1A16A4FF6FF73C903994300F47E
:101D80004032A1F580318A420AD1E16A00F07060E8
:101D9000B0EB016F04D1002002B0BDE8F08100BFBC
:101DA000012002B0BDE8F08104F11C052FCD0843ED
:101DB00040EA8210D9034FF6FF729143A1F58031BA
:101DC00040EA05600843706001203866FFF7E8F8D4
:101DD000044600BF30688001DDD4FFF7E1F8001B46
:101DE00002284FF00300F5D955E700BFFFF7D8F8F8
:101DF000054641F2883700BF306F800708D5FFF7EE
:101E0000CFF8401BB8424FF00300F5D943E700BFBD
:101E1000B8F1000F3FF57FAE306C20F08050306499
:101E200079E600BFFFF7BCF8054600BF30688003C5
:101E30007FF54CAEFFF7B4F8401B64284FF0030069
:101E4000F4D928E7411E0020B0EB116F1CBF012020
:101E500070474EF21002CEF2000251604EF623514E
:101E6000CEF20001F0230B700721906011607047E3
:101E7000FEE700002DE9F04782B0044600689A466C
:101E80000B9D0A9E0368914643F4806202600268DB
:101E90000F4642F48071016020464FF0011100228C
:101EA0003346009500F032F950B120680068C00553
:101EB00044BF4FF400702064032002B0BDE8F087F7
:101EC00040F202082068C0F2010807F0FE0707612F
:101ED0002046414632462B4600F0FEF920B1012053
:101EE00002B0BDE8F08700BF0020019020682A46BC
:101EF000416901918069314601900198204600F0C6
:101F00009FFAB0B92068BAF1010F09D04FEA192140
:101F10000161204631462A4600F092FA48B920680D
:101F20005FFA89F10161204631462A4600F088FABD
:101F300060B1206C0428D2D12068016841F400719E
:101F40000160012002B0BDE8F08700BF20680022D8
:101F50000168334641F48071016020464FF0011161
:101F6000009500F0D3F800289FD147F0010C2768B6
:101F70002046414632462B46C7F810C002B0BDE8A5
:101F8000F04700F0A9B900002DE9F04383B0044602
:101F900000680D4601680A9F0B9E41F480719946C6
:101FA0009046016020464FF0011100223B4600960A
:101FB00000F0ACF850B120680068C00544BF4FF491
:101FC00000702064032003B0BDE8F083206805F0B2
:101FD000FE0101610221C0F2010120463A4633466A
:101FE00000F07AF920B1012003B0BDE8F08300BF12
:101FF000002002902068324641690291806939468A
:1020000002900298204600F01BFA58B1206C042878
:10201000E9D12068016841F400710160012003B03A
:10202000BDE8F0832068B9F1010F0AD04FEA18210A
:10203000016120463946324600F002FA0028E5D117
:1020400020685FFA88F10161002003B0BDE8F083E9
:1020500070B50368044653F8140F400711D40E46B8
:10206000481C29D086BB00BF1868400527D4FEF75E
:1020700097FF236853F8140F400737D518684007B7
:10208000F2D5002070BD00BF18684007F9D4186869
:10209000400514D418684007F3D4186840050ED4DE
:1020A00018684007EDD41868400508D41868400740
:1020B0004FF0000048BF70BD18684005E4D56FF4CC
:1020C00080601860042012E0154603E053F8140FF6
:1020D0004007D6D418684005F1D4FEF761FF401BD5
:1020E0002368B042F2D958694007EFD4202000217C
:1020F0002022216384F83D2084F83E10226C104396
:102100002064012084F83C1070BD00002DE9F041EE
:10211000054600681E46144601F47F0201338FB263
:1021200042D0DDF81880B2F5803F40F087804069EA
:102130003840C01BB0FA80F04009A04240F0C8808F
:102140004EB924E040693840C01BB0FA80F0400925
:10215000A04240F0BD80FEF723FFA0EB08012868F5
:10216000B142EFD941693940C91BB1FA81F149093E
:10217000A142E7D19BE000BF40693840C01BB0FAE4
:1021800080F04009A0424FF0000040F0A280FEF72E
:1021900007FF286841693940C91BB1FA81F1490933
:1021A000A142E9D183E000BFB2F5803F24D100BF56
:1021B00041693940C91BB1FA81F14909A14240F096
:1021C000878041693940C91BB1FA81F14909A142AF
:1021D00040F07E8041693940C91BB1FA81F149095B
:1021E000A14275D141693940C91BB1FA81F1490950
:1021F000A142DDD06CE000BF81693940C91BB1FA52
:1022000081F14909A14263D181693940C91BB1FA01
:1022100081F14909A1425BD181693940C91BB1FAF9
:1022200081F14909A14253D181693940C91BB1FAF1
:1022300081F14909A142DFD04AE000BF80693840FE
:10224000C01BB0FA80F04009A04241D146B923E05A
:1022500080693840C01BB0FA80F04009A04237D1F5
:10226000FEF79EFEA0EB08012868B142F0D9816913
:102270003940C91BB1FA81F14909A142E8D116E000
:1022800080693840C01BB0FA80F04009A0424FF08E
:10229000000018BFBDE8F081FEF782FE2868816962
:1022A0003940C91BB1FA81F14909A142E8D10020A6
:1022B0002021286385F83D1085F83E00296C41F007
:1022C0002001296485F83C000120BDE8F08100BFB1
:1022D0000020BDE8F0810000F0B581B00446006840
:1022E0001D4643698FB203EA0701B94202D10020BB
:1022F00001B0F0BD4169164601323FD049053FD4D7
:10230000CEB100BFFEF74CFE411B2068B14203D99D
:1023100041693940B94215D141693940B942E6D0E5
:1023200041694905EED52BE041693940B942DED01B
:102330004169490524D4FEF733FE206841693940DC
:10234000B942F1D0202023E041693940B942CED0D2
:102350004169490514D441693940B942C7D041693E
:1023600049050DD441693940B942C0D04169490598
:1023700006D441693940B942B9D041694905E3D52C
:10238000016841F4007101606FF4806141610420D3
:1023900000212022216384F83D2084F83E10226C25
:1023A0001043206484F83C10012001B0F0BD00000F
:1023B00070B504460068154650F8143F5A063DD4DF
:1023C0000E4629B926E000BF50F8141F490635D43F
:1023D0000168C90621D4FEF7E3FD411B2068B14224
:1023E000F2D941694906EFD400202021206384F806
:1023F0003D1084F83E00206C40F0200018E000BF43
:10240000FEF7CEFD206850F8141F4906ECD5016890
:10241000490613D40168C906F2D56FF010010160B6
:1024200000202021206384F83D1084F83E00206CB9
:102430002064002084F83C00012070BD002070BDA5
:1024400070B50368044653F8140F000611D40E4605
:10245000481C29D086BB00BF1868400527D4FEF76A
:102460009FFD236853F8140F000637D5186800063F
:10247000F2D5002070BD00BF18680006F9D41868B6
:10248000400514D418680006F3D4186840050ED42B
:1024900018680006EDD41868400508D418680006CE
:1024A0004FF0000048BF70BD18684005E4D56FF4D8
:1024B00080601860042012E0154603E053F8140F02
:1024C0000006D6D418684005F1D4FEF769FD401B1C
:1024D0002368B042F2D958690006EFD420200021C9
:1024E0002022216384F83D2084F83E10226C1043A2
:1024F0002064012084F83C1070BD0000FEE700005D
:10250000FEE700007047000070470000FFF71EB9AB
:10251000B0B592B0002443F640000B94CDE90944D5
:10252000CDE907440594CDE90344CDE90144009485
:10253000C4F202000168022541F080510160006888
:1025400000F080500090009847F200000094C4F220
:102550000000016841F480410160006800F480409F
:10256000009000980120099010200A9008200E90F9
:10257000A820CDE90F050720119006A80695CDE902
:102580000C54FFF787FA18B172B600BFFEE700BF20
:102590000F20CDE901054FF4A05004904FF4805076
:1025A000059001A805210394FFF778F910B172B6E0
:1025B000FEE700BF12B0B0BD4EF68850CEF200006C
:1025C000016841F47001016070470000FEE70000FF
:1025D00070B582B03220FEF7F9FB40F28C0443F66E
:1025E0003C06C2F20004C0F60C06642501AA20468F
:1025F0004E21042301960095FEF78AFD0520FEF783
:10260000E5FB01AA20464E21042301960095FEF722
:102610007FFD0120FEF7DAFB01AA20464E210423AC
:1026200001960095FEF774FD0A20FEF7CFFB42F6F7
:102630002C00C0F60C00019001AA20464E21042374
:102640000095FEF765FD0A20FEF7C0FB42F62C0060
:10265000C8F68C00019001AA20464E210423009563
:10266000FEF756FD0120FEF7B1FB40F60C00C8F660
:102670008C00019001AA20464E2104230095FEF70C
:1026800047FD0120FEF7A2FB40F60C00C1F61C003E
:10269000019001AA20464E2104230095FEF738FD43
:1026A0000120FEF793FB0120FEF790FB40F60C00A3
:1026B000C6F66C00019001AA20464E210423009525
:1026C000FEF726FD0120FEF781FB40F60C00CCF65C
:1026D000CC00019001AA20464E2104230095FEF76C
:1026E00017FD02B070BD000080B582B000F0F001AF
:1026F000000101F10C0208318DF8051000F10C0108
:1027000008308DF8070040F28C008DF804208DF819
:1027100006104FF0640CC2F2000001AA4E210423FF
:10272000CDF800C0FEF7F4FC02B080BD01780029AE
:1027300008BF7047F0B583B040F28C04461E642792
:10274000C2F2000402AD00BF21F00F00090100F148
:102750000D0209308DF8090001F10D008DF80A0015
:1027600001F109008DF808208DF80B0020464E215C
:102770002A4604230097FEF7CBFCB17801360029E6
:10278000E2D103B0BDE8F040704700000000000057
:102790008CB0FEF7E9FFFFF7BBFE4FF0000843F6F1
:1027A0003000CDF82C80CDF81880C4F2020001680A
:1027B00040F2000A41F0100101600168C4F2020A0F
:1027C00001F0100106910699CDF8188001680AF50C
:1027D000805541F0040101600168002201F004010C
:1027E00006910699CDF8188001684FF0080941F06C
:1027F00080010160016801F0800106910699CDF821
:102800001880016841F001010160016801F00101D7
:1028100006910699CDF81880016841F00201016027
:10282000016801F0020106910699CDF8188001684F
:1028300041F0080101600068082100F008000690DE
:10284000069828460595FEF7A5FB0AF50066304672
:10285000012101224FF0010BFEF79CFB0AF54060BD
:102860004FF2100100220490FEF794FB07AC2846BB
:102870002146CDE9079BCDE90988FEF7BBFA304632
:102880002146CDE907BBCDE90988FEF7B3FACDF8BB
:102890001C904FF00209052730462146CDE90898E3
:1028A000CDF828800B97FEF7A5FA4FF48810CDE9F4
:1028B000080850462146CDF81CB0FEF79BFA1020C0
:1028C000CDE9070906200B9050462146CDE909883D
:1028D000FEF790FAE020CDE9070950462146CDE900
:1028E00009880B97FEF786FA04200AF58065CDE982
:1028F000070828462146CDF82480FEF77BFA4FF4DE
:102900008060CDE9070928462146CDE909880B9763
:10291000FEF770FA049F4FF21000CDE9070B38461E
:102920002146CDE90988FEF765FA4FF4A450CDE9B8
:10293000070906200B9030462146CDE9098802267A
:10294000FEF758FA4FF40070CDE9070850462146CB
:10295000CDF82480FEF74EFA4FF4E05007A981E845
:1029600041010A200B9050462146CDF82880FEF701
:1029700041FA2020CDE9070838462146CDF82480C9
:10298000FEF738FA4FF4107007901220CDE90808CE
:1029900004200B9028462146CDF828800025FEF71C
:1029A00029FA4FF49010CDE90805059821460796BD
:1029B000FEF720FA40F27008C2F20008AAF5D23100
:1029C000404640F81C1F48F2A061C0F201014FF4DC
:1029D0008042C0E90115C0E90352C0E90555C0E9CC
:1029E0000755FEF7E3FA18B172B600BFFEE700BF65
:1029F000FFF7EEFD9FED748B4FF47A794FF0640A88
:102A000037E000BF022001902846D0211122012387
:102A10000094CDF80890FEF769FC9DF81C009DF825
:102A20001D7000F0C1FD0546B8090E4600F0BCFD62
:102A300053EC182B00F0CCFD2A46334600F00CFD79
:102A400000F0D8FCC8F800009020FFF74DFE454686
:102A500055F80B0B00F0A8FF02460B46284665A16F
:102A6000FDF7A0FC2846FFF761FE4FF4FA70FEF771
:102A7000ADF9072008F11C0501902846D02100225D
:102A800001230094CDF80890FEF730FC9DF81C005F
:102A90009DF81D10060906EB860600F00F009DF854
:102AA0001E2000EB46000E0906EB860601F00F0122
:102AB0009DF81F3001EB4601160906EB860602F071
:102AC0000F0202EB46021E0906EB860603F00F0317
:102AD00003EB46039DF8206088F80730330903EBC9
:102AE000830306F00F0606EB43039DF8216088F888
:102AF0000830330903EB830306F00F0606EB4303AC
:102B00009DF8226088F80930330903EB830306F04F
:102B10000F0606EB430308F10B0688F8040088F85B
:102B2000051088F8062088F80A30D2B2CBB2C7B2B6
:102B3000304627A10097FDF735FC8020FFF7D4FD34
:102B40003046FFF7F3FD98F8082098F8093098F818
:102B50000A70304622A10097FDF724FCC020FFF741
:102B6000C3FD3046FFF7E2FD00208DF81C008DF814
:102B700018002846D0210F220123CDE9004BCDF8C3
:102B800008A0FEF7B3FB9DF81C0040073FF53AAFE5
:102B900006A8CDE9000B2846D0210E220123CDF84E
:102BA00008A0FEF7A3FB9DF81800D02140F02000FC
:102BB000CDE9000B28460E220123CDF808A0FEF730
:102BC000C1FC1FE700BF00BF000000000000D03FB5
:102BD000253032643A253032643A253032640000C0
:102BE000253032642D253032642D32302530326468
:102BF00000000000256600005FEA400C08BF91F06D
:102C0000000F4FEA8C234FEAC12243EA51514FEAA9
:102C10001C5018BF00F5F0404FEA300018BF41F0DB
:102C200000415FEA6C5C00F02980BCF1FF3F08BF07
:102C300040F080407047130C06BF12044FF0100C98
:102C40004FF0000C130E04BF12020CF1080C130F0E
:102C500004BF12010CF1040C930F04BF92000CF19D
:102C6000020CD30F04BF52000CF1010C11464FF0BF
:102C70000002A0F11F00A0EB0C00704711F0004F04
:102C800008BF704731F000413FF4D5AF0B0C06BFD1
:102C900009044FF0100C4FF0000C0B0E04BF09029A
:102CA0000CF1080C0B0F04BF09010CF1040C8B0F85
:102CB00004BF89000CF1020CCB0F04BF49000CF1DA
:102CC000010CCCF1200322FA03F341EA030102FADA
:102CD0000CF2A0EB0C0000F10100704723F07F47DD
:102CE00020F07F4C80EA030000F00040ACEB0703CB
:102CF00003F57C5303F1FF032DE9804909B44FEA42
:102D0000144324EA03484FEA154B25EA0B4E0FF211
:102D1000042606EB13273E7803FB0667C7F500077A
:102D200007FB06F64FEAD64606F102064FEA54378D
:102D300007FB066CCCF1005C4FEA1C472CEA074C01
:102D40000CFB06F507FB06F404EB15464FEA961656
:102D500049085FEA320234BF00204FF000404FEADA
:102D6000D13706FB07FC4FEA1C4C0CFB0BF7D21BC0
:102D700003FB0CF761EB07010CFB0EF7B0EB074010
:102D800072EB17420CFB08F734BFA2EB0742B2EB21
:102D9000074261EB17414FEA0C444FEA910706FBEB
:102DA00007FC4FEA1C4C0CFB0BF7B0EBC74072EB77
:102DB000573203FB0CF734BFA2EBC742B2EBC7425A
:102DC00061EB57310CFB0EF7B0EBC70072EB57729B
:102DD0000CFB08F734BFA2EBC702B2EBC70261EBF2
:102DE00057714FEA816141EA92114FEA826242EAE9
:102DF00090124FEA806004EBCC04039F4FEAD13776
:102E000006FB07FC4FEA1C4C0CFB0BF7D21B03FB29
:102E10000CF761EB07010CFB0EF7B0EB074072EB10
:102E200017420CFB08F734BFA2EB0742B2EB074294
:102E300061EB17414FEA8C5504EB9C244FEA910754
:102E400006FB07FC4FEA1C4C0CFB0BF7B0EBC74032
:102E500072EB573203FB0CF734BFA2EBC742B2EB65
:102E6000C74261EB57310CFB0EF7B0EBC70072EBBA
:102E700057720CFB08F734BFA2EBC702B2EBC702D4
:102E800061EB57714FEA816141EA92114FEA826228
:102E900042EA90124FEA806015EB4C2544F10004A1
:102EA0004FEAD13706FB07FC4FEA1C4C0CFB0BF733
:102EB000D21B03FB0CF761EB07010CFB0EF7B0EB29
:102EC000074072EB17420CFB08F734BFA2EB074236
:102ED000B2EB074261EB17414FEA813141EA92417F
:102EE0004FEA823242EA90424FEA80304FEA0C7653
:102EF00015EB1C1544F1000448EA03434EEA0B4865
:102F00004FF0000EB2EB080C71EB030724BF6246D2
:102F100039464EEB0E0E4FF0000B0018524149415E
:102F20004BEB0B0BB2EB080C71EB03077BF1000BC7
:102F300024BF624639464EEB0E0E4FF0000B0018D0
:102F4000524149414BEB0B0BB2EB080C71EB030701
:102F50007BF1000B24BF624639464EEB0E0E51EA60
:102F6000020718BF46F0010616EB0E7655F1000277
:102F700054F1000103D5BDE88901BDE80088BDE832
:102F80008901BDE80048B619524141EB0101A3F1A6
:102F90000103704780807F7E7D7C7B7A79787776AD
:102FA00076757473727171706F6E6E6D6C6C6B6A26
:102FB0006A696868676666656464636362616160C4
:102FC000605F5F5E5E5D5D5C5C5B5B5A5A59595841
:102FD00058575756565555555454535352525251AB
:102FE000515050504F4F4F4E4E4D4D4D4C4C4C4B01
:102FF0004B4B4A4A4A494949484848474747474648
:103000004646454545444444444343434342424283
:10301000424141419C46002B30D477002BD04FEAEF
:1030200037071CB503B44FF010004FF01001BAF190
:10303000000F06D0BCF1000FDCBF40F0080040F0EC
:1030400008014FF000000FBCBDE810400BF1010B70
:10305000BBF1010F08BF5FEA170722BF12F101029F
:1030600011F101014FF0004143F1000300F0004075
:1030700043EA00007047F9D35708D0E746EA06460E
:103080004FEA164613F1400F1FDD13F1200FDFBF8B
:1030900016430A46002120335B42BED0C3F120070D
:1030A00046EA06464FEA164602FA07F746EA0706D8
:1030B00022FA03F2C3F1200701FA07F742EA0702F6
:1030C00021FA03F14FF00003A7E746EA020646EAB9
:1030D00006464FEA164646EA0106BCBF46EA0646E1
:1030E000360C4FF000034FF000024FF0000194E760
:1030F0002DE9804C70B49A46934691E8380007C891
:1031000031EA400C48BF34EA430C03D5FFF7E6FD33
:10311000FFF780FFF0BCBDE8008C2DE9804C70B457
:103120009A46934691E8380007C810F0804F08BFD0
:1031300013F0804F03D100F005F8FFF76BFFF0BCF0
:10314000BDE8008C20F07F4723F07F4C80EA03002D
:1031500000F0004007EB0C03A3F57C53A3F1FE0342
:1031600092F0000F00F0B38095F0000F00F0778030
:103170002DE901494FEA114021EA00484FEA14467F
:1031800024EA064700FB06FC08FB06F607FB08F8E6
:1031900018EB06484CEB164C00FB07F718EB0748FA
:1031A0004CEB17404FEA124B22EA0B4E4FEA154602
:1031B00025EA06470BFB06FC0EFB06F607FB0EFE98
:1031C0001EEB064E4CEB164C0BFB07F71EEB074EA7
:1031D0004CEB174B18EB0B0840F1000018EB0E0BF3
:1031E00058EB000840F100008F1A4FF000014FF03B
:1031F00000063CBFC943661B14BFB5EB040C00219D
:103200003CBFC943F61B4FEA174427EA04454FEA7F
:103210001C472CEA074C04FB076205FB07F70CFB75
:1032200005F616EB074642EB174204FB0CFC16EBC7
:103230000C4642EB1C421BEB060658EB02024141D6
:103240004EEA8E0E46EA9E0601D5BDE80189B61902
:10325000524141EB0101A3F10103BDE801894FEAAD
:10326000144524EA05464FEA114721EA074C05FBBD
:1032700007F406FB07F70CFB06F111EB074144EBE3
:10328000174405FB0CFC11EB0C4144EB1C444FEACA
:10329000124722EA074C05FB07F206FB07F70CFB77
:1032A00006F616EB074642EB174205FB0CFC16EB45
:1032B0000C4642EB1C456A1854F1000148BF7047A8
:1032C000B619524141EB0101A3F10103704795F09A
:1032D000000F37D04FEA114221EA02464FEA144765
:1032E00024EA074C02FB07F106FB07F70CFB06F488
:1032F00014EB074441EB174102FB0CFC14EB0C44AC
:1033000041EB1C414FEA154725EA074C02FB07F544
:1033100006FB07F70CFB06F616EB074645EB1745D1
:1033200002FB0CFC16EB0C4645EB1C42121951F14A
:10333000000148BF7047B619524141EB0101A3F1AA
:10334000010370474FEA144524EA05464FEA114746
:1033500021EA074C05FB07F106FB07F70CFB06F219
:1033600012EB074241EB174105FB0CFC12EB0C4240
:1033700051EB1C414FF0000648BF7047921841EBDB
:103380000101A3F10103704703B4019841000098C3
:1033900050EAC12018BF04204A0D18BF40F00100B8
:1033A00040F2FF72B2EB515F08BF40F0020001280B
:1033B00008BF052002B0704730380A2801D201202A
:1033C000704700207047000010B500290AD0087827
:1033D000002807D005487844FDF7AEFC002801D04E
:1033E000002010BD0248784410BD0000BA0700005C
:1033F000B207000021F0004201F00043A2F1605248
:10340000B2F5801F28BFD2F17F6C0BD95FEA001C98
:1034100043EAC20242EB507018BF704728BF20F049
:1034200001007047B2F5801FBCBF184670474FEAD5
:10343000410C1CF5001F02D2084600F033BB70B5EA
:1034400000F070F900000089FFF7F6BF4FF0004070
:10345000A0F580007047000010B591EA030F48BF47
:1034600083F0004300F1BA81841A71EB030C05D29A
:10347000121943EB0C03001B61EB0C014FEA1154D2
:10348000A4EB135CDFF81CE11EEA430F18BF9EEAB1
:10349000445F00F0748021EA045123EA0E0343F4F0
:1034A0008013DCF1200E32D322FA0CFE10EB0E005A
:1034B00023FA0CFE41EB0E01CCF1200E03FA0EFEB6
:1034C00010EB0E00CCF1200E51F10001B1F5801F80
:1034D00032D201EB045112FA0EF2BDE8104058BF8F
:1034E0007047401C38BF5FEA420218BF704700288F
:1034F00014BF20F0010041F100014FEA410313F530
:10350000001F38BF7047A1F1C04100F059B9012A2E
:1035100043EB0302ACF1200CDCF11F0E32BF4FF085
:10352000000E23FA0CF310EB030041EB0451B4EB53
:10353000115FD0D0A1EB045101F58011490801EBD6
:1035400004515FEA30000ED350F1000038BF12FA88
:103550000EFE08D1BDE81040C9E7401C38BF5FEA45
:103560004202CAD1C3E7BDE810404FEA410313F558
:10357000001F38BF7047A1F1C04100F021B99EEA99
:10358000445F08D011EA5E0FBDE8104004BF01F0AF
:10359000004100207047BDE8104070B500F0C2F84F
:1035A00064FBBE3E0000E0FFB0FA80F310FA03F1C6
:1035B0000AD0C3F11D0303F580634FEA03524FEABB
:1035C000415002EBD12170474FF0000070470000DE
:1035D00070B5DFF848C11CEA111E1EBF1CEA1315A6
:1035E0009EEA0C0F95EA0C0F00F06F8081EA03044D
:1035F0004EEAD47EAE4421EA4C1123EA4C1341F446
:10360000801143F48013AEF17F7EA1FB024CA0FB3E
:103610000365361955EB0C05A1FB034C4CF1000377
:10362000A0FB021C16EB0C06654153F10003094296
:1036300018BF46F0010613F4007F0BD14FEA0331A7
:103640004FEA053041EA155140EA165034036FF055
:1036500003020AE04FEAC3214FEAC52041EA55516F
:1036600040EA5650F4026FF0020202EB2E4201EBE8
:10367000025585EACE710AD05FEA440C18BF24F0E7
:10368000004450F1000041F1000120EAD47040F202
:10369000FE7C624500D270BDA84214BF4FF080444A
:1036A0004FF04044002E08BF0024BEF1806FA8BF39
:1036B000A1F1C041BDE8704080F2828001F1C041BB
:1036C00001F000414FF0000070470CEA13159EEA2C
:1036D0000C0F18BF95EA0C0F06D081EA030E4FF0CD
:1036E00000000EF0004170BD00F01CF88900013EA2
:1036F00000F007B800F009B84FEA430C5FEA5C5CE1
:1037000008D081EA030100F05BB84FEA410C5FEAA0
:103710005C5CF6D102494FF0000070470000FF07E3
:103720000000F87F0EF1020E2EF0030E5EF8046B1F
:10373000364205D4012A43EB030515F5001F12D8C4
:10374000012841EB010C1CF5001F0CD80ED14FEAEB
:10375000D17C0CEB4C0C0CF1020C15F5001F08BFD2
:103760004CEBD37C04E04FF0080C01E04FEAD37C33
:103770000CEB4C0526FA05F606F00706B6F1040C2C
:1037800006D20EEB860CBDE870404CF0010C604791
:10379000DFE80CF0090B02024FF00041A1F5002117
:1037A0004FF0000070BD19461046012851EB01048E
:1037B00018BFD4F5001484BF002001F0004170BD93
:1037C0000808A0F500114FEA3101704710B591EAE1
:1037D000030F48BF83F000433FF546AE841A71EBF8
:1037E000030C07D28CF0004C121943EB0C03001BA6
:1037F00061EB0C014FEA1154A4EB135CDFF8A4E178
:103800001EEA430F18BF9EEA445F00F0B48021EA2D
:10381000045123EA6E035242C3EB6E0338BF5B1EB2
:10382000DCF1200E25D322FA0CFE10EB0E0043FA39
:103830000CFE41EB0E01CCF1200E03FA0EFE10EB54
:103840000E00CCF1200E51F1000129D401EB0451FE
:1038500012FA0EF2BDE8104058BF7047401C1CBF62
:10386000B2F1004F704700280CBF491C20F0010046
:10387000704712EB020E43EB030218BF4FF0010E2C
:103880004EEA4202ACF1200CDCF11E0E56D943FA8E
:103890000CFE10EB0E00CCF11E0E51F1FF31D5D510
:1038A0000EF1010E12FA0EFE404141EB010101EB57
:1038B000445C5FEA5C5C10D901EB045110EBDE70F4
:1038C00038BFBEF1004FBDE8104018BF7047002858
:1038D0000CBF491C20F00100704734D24FEAD42CB1
:1038E00024F4006411F500111BD0B1FA81F20B3AF7
:1038F000A41AA41ED2F12003914030FA03F3194315
:10390000904001EBCC7101EB0451002CBDE810405C
:10391000A8BF704701F1C04101F000414FF0000025
:103920007047B0FA80F310FA03F102D1BDE81040FD
:103930007047E41A173C4805C90AE2E701EB045155
:10394000BDE81040704749104FEA300001EB0451C8
:10395000BDE8104002E04FF0000170474A0008BF88
:103960000042F8D0B2F5001F28BF704701F00041B7
:103970004FF0000070479EEA445F07D011EA5E0FE7
:10398000BDE8104004BF002100207047BDE8104092
:1039900070B5FFF7C7FE00BF40DFF63E104683F06C
:1039A000004170470000E0FF43004FEAD30C4FEAAC
:1039B0003C0C43401FBF40070CF1605113F0FE4F19
:1039C00070471CF0006F03D10CF0004100207047DD
:1039D0000CF0004343EA507040EACC0010B500F010
:1039E0000EF800BF000000924FEA0001FFF7E8BEAA
:1039F0004FF00041A1F500214FF0000070470EF19B
:103A0000020E2EF0030E5EF8044B244204D44FEA5B
:103A10004102B2F17F4F11D84FEA4003B3F17F4F1B
:103A20000CD80ED14FEAD07C0CEB4C0C0CF1020CF4
:103A3000B2F17F4F08BF4CEBD17C04E04FF0080C93
:103A400001E04FEAD17C0CEB4C0324FA03F404F0C0
:103A50000704B4F1040C06D20EEB840CBDE8104050
:103A60004CF0010C6047DFE80CF0070802024FF051
:103A70000040A0F5800010BD0846420018BFD2F1FA
:103A8000807288BF00F0004010BDF1EE100A4FF6C2
:103A9000FF71C0F2C03120EA010040F04070E1EE59
:103AA000100A7047FF2141EAD050C0057047FCF76B
:103AB000C1BE040000080000000000000002000178
:103AC0000000100002400000000000A00000000004
:103AD00005400000000000C8000000000C4000008D
:103AE0000000409C00000000194000000020BCBE07
:103AF0000000000034400000BFC91B8E000000041D
:103B0000B5400000504BCFD06607E2CF0100000067
:103B10006C4100003E8251AADFEEA7340100000094
:103B2000D9420000DCB5A0E23A301F97FFFFFFFF4B
:103B3000B4450000FD25A0C8E9A3C14FFFFFFFFF6A
:103B4000FF3F00000000008000000000FF3F000079
:103B500000000080000000000000000000000000E5
:103B60000102030406070809000000000102030423
:103B7000B03B00080000002010000000EC0100082D
:103B8000C03B000810000020D80600000C0200080E
:103B90001C00000043000000F8FFFFFF0C000000C5
:103BA0000E0000000F0000002E00000000000000CA
:103BB00001000000100000000024F40000000000DC
:040000050800018965
:00000001FF
