:020000040800F2
:10000000C8060020550200085112000849120008D5
:100010004D120008010400081D1300080000000034
:10002000000000000000000000000000591200085D
:100030001104000800000000551200085D120008BD
:100040006F0200086F0200086F0200086F020008CC
:100050006F0200086F0200086F0200086F020008BC
:100060006F0200086F0200086F0200086F020008AC
:100070006F0200086F0200086F0200086F0200089C
:100080006F0200086F0200086F0200086F0200088C
:10009000050400086F0200086F0200086F020008E4
:1000A0006F0200086F0200086F0200086F0200086C
:1000B0006F0200086F0200086F0200086F0200085C
:1000C0006F0200086F0200086F0200086F0200084C
:1000D0006F0200086F0200086F0200086F0200083C
:1000E0006F0200086F0200086F0200086F0200082C
:1000F0006F0200086F0200086F0200086F0200081C
:100100006F0200086F0200086F0200086F0200080B
:100110006F0200086F0200086F0200086F020008FB
:100120006F0200086F0200086F0200086F020008EB
:100130006F0200086F0200086F0200086F020008DB
:100140006F0200086F0200086F0200086F020008CB
:100150006F0200086F0200086F0200086F020008BB
:100160006F0200086F0200086F0200086F020008AB
:100170006F0200086F0200086F0200080000000014
:100180006F0200086F02000800F002F800F052F859
:1001900014A696E8000CB244B344DA4501D100F04D
:1001A00049F8BAE80F000FA696E83000A5EB040561
:1001B00004EB0607AAEB0704A7F101074FEA1515A0
:1001C0004FEA3414A4F10104AC4201D300F032F838
:1001D00013F0010F18BFFB1A43F0010300F001F800
:1001E000DBE71847C8140000E8140000103A24BFE9
:1001F00078C878C1FAD8520724BF30C830C144BF8C
:1002000004680C6070470000704700000023002461
:1002100000250026103A28BF78C1FBD8520728BF16
:1002200030C148BF0B6070471FB501F02AFA1FBDEF
:1002300010B510BD00F0A9F81146FFF7F5FF01F069
:100240006FF800F0C7F803B4FFF7F2FF03BC00F04B
:10025000CFF800000948804709480047FEE7FEE75D
:10026000FEE7FEE7FEE7FEE7FEE7FEE7FEE7FEE766
:1002700004480549054A064B704700000913000869
:1002800089010008C8000020C8060020C80200201C
:10029000C802002053EA020C00F069802DE9F04BFF
:1002A0004FF00006002B1FBFB3FA83F503FA05F4E5
:1002B00024FA05F65E4012BF1643B2FA82F502FA3E
:1002C00005F4C5F120051EBF22FA05FC44EA0C0422
:1002D000203556EA044C4FEA144418BF641C4FF012
:1002E00000084FF00009904271EB030C39D300294C
:1002F00019BFB1FA81F701FA07F6B0FA80F700FAF0
:1003000007F6C7F120071EBF20FA07FC46EA0C06D5
:100310002037B6FBF4FCA7EB0507103F07F01F0BD7
:10032000CBF120062CFA06F60CFA0BFB44BFB346C1
:100330000026202FA4BF5E464FF0000B5BEA060CA0
:1003400008BF4FF0010B19EB0B0948EB0608ABFB9C
:10035000027C06FB02CC0BFB03CCC01B71EB0C0137
:10036000C1E70B46024641464846BDE8F08B13B54F
:10037000084318BF4FF0FF300146AFF30080BDE8DF
:100380001C407047704770477047754600F02CF866
:10039000AE4605006946534620F00700854618B072
:1003A00020B5FFF765FFBDE820404FF000064FF095
:1003B00000074FF000084FF0000BAC46ACE8C00956
:1003C000ACE8C009ACE8C009ACE8C00921F00701FD
:1003D0008D46704710B50446AFF300802046BDE857
:1003E0001040FFF730BF00000048704710000020A9
:1003F00001491820ABBEFEE726000200704700004E
:10040000FEE7000040F29800C2F2000000F070B871
:100410007047000090F82020013A012A08D80068AF
:1004200000F114020020136819431160704700BFE7
:1004300000F1240201204FF4802113681943116058
:100440007047000010B590F820E0D0F800C0AEF181
:10045000010EBEF1010FDCF808E011D81EF0E05FDC
:1004600018D0CEF3016E012000FA0EF018608B68F0
:10047000D3B14868CC6844EAC000034318E000BF29
:1004800000F1240101204FF480220B681A430A6016
:1004900010BD00BF00F1240101204FF400120B68D1
:1004A0001A430A6010BD00BF0868CB6843EA405396
:1004B0000CEB0E10C0F880310B69C0F88431097D57
:1004C000012905D100F5C2710B6843F480730B60FC
:1004D0005168C0F88C11126800F5C071C0F888210D
:1004E000002001220B681A430A6010BD704700000B
:1004F0002DE9F04F81B0044600684669D0F80490B9
:100500008768D0F80CB0D0F810A0D0F81880F107A8
:1005100004D1002530071DD424E000BFF90710D016
:100520000121BA07816009D4780700F1AF8038074C
:1005300000F1B680204600F0F9F902E0204600F014
:10054000F7F90025F80500F18780F80300F1B18084
:10055000300707D51BF0100004D0206845F4007563
:100560001021C160700708D51BF0080005D0206875
:100570000821C160204600F0A1F9B00706D5206827
:10058000C068800702D0204600F09AF9700607D5AF
:100590001AF0100004D0206845F480651021016134
:1005A000B00608D51AF0080005D0206808210161BE
:1005B000204600F087F9F00606D52068006980071C
:1005C00002D0204600F080F9B00308D519F01000E1
:1005D00005D0206810214160204600F077F9F00333
:1005E00008D519F0080005D0206808214160204690
:1005F00000F0A8F9300440F19B805FEA497040F1B7
:10060000948006F4807008EA102028435FEA88711D
:10061000014648BF41F00201B20558BF01465FEAFA
:1006200048700D4648BF45F00405700558BF0D469B
:10063000300540F17A8018F0700000F076801038B4
:10064000000905286CD8DFE800F003595D61656991
:1006500045F0080564E000BF20684FF48071BA05DA
:1006600081600BD4780515D438051DD4204600F0E0
:1006700061F9F8037FF56CAF1BE000BF204600F086
:100680005BF9F8037FF564AF13E000BF4FF400653A
:1006900058E700BF05F50055F8037FF559AF08E0AE
:1006A0004FF480554EE700BF05F58045F8037FF510
:1006B0004FAF20684FF48031BA0381600AD47803C9
:1006C00010D4380314D4204600F038F930073FF531
:1006D00041AF47E7204600F033F930073FF53AAF26
:1006E00040E700BF05F5004530073FF533AF39E778
:1006F00005F5803530073FF52DAF33E745F01005A0
:100700000EE000BF45F020050AE000BF45F04005BF
:1007100006E000BF45F0800502E000BF45F48075AB
:100720002068816921F070018161206804214160A5
:1007300055B1606A40EA05012046616201B0BDE83A
:10074000F04FFFF7D3BE00BF01B0BDE8F08F00004F
:10075000002804BF01207047B0B5044690F820007F
:1007600010B9204600F06EF82068016841F00101E0
:10077000016000F0D3F9054620684168C90705D13A
:1007800000F0CCF9401B0B28F6D310E0016821F0F3
:100790000201016000F0C2F9054600BF206841680F
:1007A00089070DD500F0BAF9401B0B28F6D3606A13
:1007B000052140F400306062012084F82010B0BDB3
:1007C000217E0268012922F0800208BF8032026087
:1007D000617E0268012922F0400208BF40320260B7
:1007E000A17E0268012922F0200208BF20320260A7
:1007F000E17E0268012922F0100218BF1032026067
:10080000217F0268012922F0080208BF0832026035
:10081000617F0268012922F0040208BF04320260ED
:10082000D4E901C2D4E9033561691A432A4311436B
:10083000ACF101021143C16100200121606284F822
:100840002010B0BD016846F20040C4F200008142B1
:1008500018BF704780B586B0002143F63002019181
:10086000C4F20202136900F5D43043F0007313613F
:10087000136903F000730193019B0191136843F026
:10088000080313601268022302F008020192019A21
:10089000CDE9023109210322059101A901920492B7
:1008A00000F066F814200021002200F0BBF91420AB
:1008B00000F0A6F906B0BDE8804070477047000020
:1008C000704700007047000070470000704700004C
:1008D000B0B5044690F8200001281DD1022084F80C
:1008E00020002068016821F00101016000F016F984
:1008F000054600BF20684068C00713D000F00EF91D
:10090000401B0B28F6D3606A40F40030606205207B
:1009100084F820000120B0BD606A40F400206062CD
:100920000120B0BD00206062B0BD00007047000033
:1009300070470000704700007047000070470000DB
:100940007047000070470000B0B5044600F0E6F8BC
:10095000054640F20000C2F200000078611C18BF9A
:10096000044400BF00F0DAF8401BA042FAD3B0BD47
:100970002DE9F04F82B000F13E4707F1FF77860581
:1009800046EA972741F60046C4F20206082243F6DB
:10099000004EB04208BF0722C4F2010E072F38BF35
:1009A0003A46002600274FF00008009209E000BFF9
:1009B00008F101080237B8F1100F06F1040600F043
:1009C000A3800D68012202FA08F415EA0409EFD0A9
:1009D000D1F804B003220BF0030CACF10105BA40CE
:1009E000012D6FEA020A0FD88268CD6802EA0A0276
:1009F000BD402A4382604268A243CBF3001404FA4C
:100A000008F42243426005E0BCF1030F02D14FF02D
:100A1000030C1EE0C2688C6802EA0A02BC40224352
:100A2000BCF1020FC26014D16FF0030202EA580257
:100A30000244D2F820C006F01C040F230D69A34025
:100A40002CEA0303A5402B431362D1F804B00BF04A
:100A5000030C02680CFA07F302EA0A021A431BF4B9
:100A6000403F0260A4D0002243F644030192C4F246
:100A700002031A684FF6084C42F480421A601A6862
:100A8000CFF6FF7C02F480420192019A28F0030223
:100A9000724452F80C3006F00C050F24AC40A3430E
:100AA000009C04FA05F52B4342F80C30DEF80820D0
:100AB0004B6842EA090543F60C4CDC0258BF22EAB7
:100AC0000905CEF80850C4F2010CDCF800209C02A5
:100AD00042EA090558BF22EA0905CCF80050DEF8C1
:100AE00004209C0342EA090558BF22EA0905CEF812
:100AF0000450DEF80020DB0342EA090558BF22EA71
:100B00000905CEF8005053E702B0BDE8F08F0000B1
:100B1000002A08BF090481617047000040F2C0004C
:100B2000C2F200000068704740F2000040F2C001CD
:100B3000C2F20000C2F2000100780A6810440860A6
:100B40007047000080B543F60040C4F2020001681F
:100B500041F400710160016841F480610160016845
:100B600041F480710160032000F088F8002000F05B
:100B700005F800F027F8002080BD000070B540F2B5
:100B80000006C2F2000640F208013278C2F200010B
:100B90004FF47A730968B3FBF2F20446B1FBF2F149
:100BA000084600F03BFB0F2C4FF0010508D838B980
:100BB0004FF0FF3021460022002500F033F874602A
:100BC000284670BD82B0002043F640010190C4F277
:100BD00002014A6842F480424A604A6802F4804254
:100BE0000192019A0090086840F0805008600868FF
:100BF00000F0805000900098072002B000F03EB84E
:100C0000002848BF704700F01F01012202FA01F1DD
:100C10001C2202EAD0004EF20012CEF200028150F5
:100C20007047000010B54EF60C5CCEF2000CDCF8FC
:100C30000030C3F3022E8EF00704042C28BF0424D6
:100C4000BEF103034FF0FF3E0EFA04F438BF002359
:100C5000A14399400EFA03F39A43114300F00F02A7
:100C600000F160430901043A03F56443624400283B
:100C700048BF02F10C03197010BD00004EF60C5174
:100C8000CEF200010A684FF6FF031A4060F30A2211
:100C900042F0806040F0FD7008607047002804BF9B
:100CA000012070472DE9F04143F60808C4F202081C
:100CB0000446D8F8F8030D4600F00700884207D232
:100CC00088F8F853D8F8F80300F00700A84277D165
:100CD0002068810717D5410705D5D8F8001041F4E1
:100CE000E051C8F80010010705D5D8F8001041F40C
:100CF0006041C8F80010D8F80010A26821F0F00197
:100D00001143C8F80010C00740D1D8F8F80300F02C
:100D10000700A84207D988F8F853D8F8F80300F07C
:100D20000700A8424CD12068410707D5D8F8001029
:100D3000E26821F4E0511143C8F80010000708D51B
:100D4000D8F80000216920F4604040EAC100C8F8EA
:100D5000000000F055F8D8F8001041F29C62C1F391
:100D60000311C0F60002515C40F2080220FA01F1C2
:100D700040F20400C2F200000068C2F200021160FA
:100D8000FFF7FCFE0020BDE8F08100BF6068811E17
:100D9000022907D258F8081C89015CBF0120BDE870
:100DA000F08111E0012807D158F8081C89035CBFC5
:100DB0000120BDE8F08107E058F8081C890703D43A
:100DC0000120BDE8F08100BFD8F8001021F0030138
:100DD0000843C8F80000FFF7A1FE064641F2883735
:100DE000D8F80000616800F00C00B0EB810F8CD0E7
:100DF000FFF794FE801BB842F2D90320BDE8F081D2
:100E000010B543F60404C4F20204606800F00C015B
:100E100042F200400829C0F2F40007D0042918BFAC
:100E200010BD41F20020C0F27A0010BD216801F02F
:100E30003F02216823684902C3F3881106D4A1FB4D
:100E400000010023FFF726FA07E000BF41F200206F
:100E5000C0F27A004843B0FBF2F021680222C1F3ED
:100E6000014102EB4101B0FBF1F010BD002804BFCD
:100E7000012070472DE9F04182B00446007843F626
:100E80000006C007C4F202060CD0B06800F00C00E7
:100E9000042840F081803068800303D56068002812
:100EA00000F06A81207880071BD5B06810F00C0F25
:100EB00009D0B06800F00C00082840F08780706806
:100EC000400200F183803068800703D5E068012884
:100ED00040F052813068216920F0F80040EAC100FA
:100EE00030602078000713D4207840072AD4A56901
:100EF000002D00F03C81B06800F00C00082840F0A4
:100F0000A180012D40F01081012002B0BDE8F081E8
:100F10006069002840F20000C4F2472000F07E80A3
:100F20000121C0F8801EFFF7F9FD0546706F8007AC
:100F3000DAD4FFF7F3FD401B0228F7D9032002B0F3
:100F4000BDE8F081306C5FEAC0080AD4002001904F
:100F5000306C40F080503064306C00F08050019074
:100F6000019847F20007C4F200073868C00547D46B
:100F7000386840F480703860FFF7D0FD054600BF48
:100F80003868C0053CD4FFF7C9FD401B0228F7D9DB
:100F9000032002B0BDE8F081B06800F00C00082822
:100FA00003D1706840023FF576AF6068B0F5803FCE
:100FB00007D0B0F5A02F40F09B80306840F480202F
:100FC0003060306840F4803030609BE0E06800289A
:100FD0005CD00020C4F2472001210160FFF79EFD94
:100FE000054600BF306880073FF574AFFFF796FDF8
:100FF000401B0228F6D9032002B0BDE8F08100BFF3
:10100000A068012805D0052854D1306F40F00400B5
:101010003067306F40F00100306755E00021C0F8C4
:10102000801EFFF77BFD0546706F80077FF55CAF84
:10103000FFF774FD401B0228F6D9032002B0BDE87B
:10104000F08100BF0027C4F2472700203866FFF771
:1010500065FD022D05460DD13068800140F190807C
:10106000FFF75CFD401B02284FF00300F4D902B0EB
:10107000BDE8F0813068800179D5FFF74FFD401B56
:1010800002284FF00300F5D9F1E700BF0020C4F2B9
:10109000472000210160FFF741FD054630688007C9
:1010A0007FF51FAFFFF73AFD401B02284FF003000A
:1010B000F4D9DCE7316F002821F001013167316F8D
:1010C00021F0040131677DD0FFF728FD054641F28C
:1010D000883700BF306F800700F18680FFF71EFD64
:1010E000401BB842F6D9032002B0BDE8F08100BF32
:1010F0003168002821F480313160316821F4802189
:1011000031607BD0FFF70AFD054600BF30688003E1
:101110003FF5C8AEFFF702FD401B6428F6D9032057
:1011200002B0BDE8F08100BF7068E16900F48002A0
:101130008A4221D1216A00F03F028A421CD147F63F
:10114000C071626A0140B1EB821F15D1A16A4FF6EE
:10115000FF73C903994300F44032A1F580318A42FC
:101160000AD1E16A00F07060B0EB016F04D1002099
:1011700002B0BDE8F08100BF012002B0BDE8F081FF
:1011800004F11C052FCD084340EA8210D9034FF625
:10119000FF729143A1F5803140EA05600843706019
:1011A00001203866FFF7BAFC044600BF30688001B2
:1011B000DDD4FFF7B3FC001B02284FF00300F5D984
:1011C00055E700BFFFF7AAFC054641F2883700BF8C
:1011D000306F800708D5FFF7A1FC401BB8424FF0E5
:1011E0000300F5D943E700BFB8F1000F3FF57FAE2C
:1011F000306C20F08050306479E600BFFFF78EFC41
:10120000054600BF306880037FF54CAEFFF786FCD3
:10121000401B64284FF00300F4D928E7411E00204A
:10122000B0EB116F1CBF012070474EF21002CEF2DE
:10123000000251604EF62351CEF20001F0230B70F4
:101240000721906011607047FEE70000FEE7000094
:10125000FEE700007047000070470000FFF764BC25
:10126000B0B592B0002443F64000CDE90A44CDE980
:1012700008440594CDE90344CDE901440094C4F247
:1012800002000168022541F080510160006800F011
:1012900080500090009847F200000094C4F20000D3
:1012A000016841F480410160006800F480400090D2
:1012B0000098012006904FF4803007904FF4800092
:1012C0000D9004200E90A820CDE90F050720119065
:1012D00006A80C95FFF7CAFD10B172B6FEE700BF75
:1012E0000F20CDE901054FF4A05004904FF4805039
:1012F000059001A805210394FFF7D0FC10B172B648
:10130000FEE700BF12B0B0BD4EF68850CEF200002E
:10131000016841F47001016070470000FEE70000C1
:1013200088B043F6300B40F2000AC4F2020BC4F25C
:10133000020AFFF707FCFFF793FF002707970297C2
:10134000DBF800000AF5805540F01000CBF80000F3
:10135000DBF80000082100F01000029002980297CC
:10136000DBF80000002240F00400CBF80000DBF8BE
:1013700000004FF0080800F0040002900298029765
:10138000DBF8000040F08000CBF80000DBF8000044
:1013900000F08000029002980297DBF8000040F015
:1013A0000100CBF80000DBF8000000F00100029023
:1013B00002980297DBF8000040F00200CBF8000032
:1013C000DBF8000000F00200029002980297DBF8C0
:1013D000000040F00800CBF80000DBF8000000F04F
:1013E00008000290029828460195FFF791FB0AF544
:1013F00000694846012101220124FFF789FB0AF513
:1014000040604FF2100100220090FFF781FB03AE15
:1014100028463146CDE90384CDE90577FFF7A8FAE0
:101420000120CDE90300484631460125CDE9057785
:10143000FFF79EFACDF80C804FF0020805244846CD
:101440003146CDE9048706970794FFF791FA4FF4E8
:101450008810CDE90407504631460395FFF788FA16
:101460001020CDE903080620079050463146CDE90B
:101470000577FFF77DFAE020CDE9030850463146B5
:10148000CDE905770794FFF773FA04200AF5806524
:10149000CDE90307284631460597FFF769FA4FF46F
:1014A0008060CDE9030828463146CDE905770794E9
:1014B000FFF75EFA4FF21000009C03900120CDE987
:1014C0000407204631460697FFF752FA4FF4A4501E
:1014D000CDE903080620079048463146CDE9057757
:1014E000FFF746FA4FF40070CDE903075046314646
:1014F0000597FFF73DFA4FF4E050CDE903080A20C5
:10150000079050463146CDE90577FFF731FA2020A4
:10151000CDE90307204631460597FFF729FA4FF436
:10152000107003901220CDE904070420079028468C
:1015300031460697FFF71CFA4FF49010CDE90407E7
:1015400001983146CDF80C80FFF712FA40F2700591
:10155000C2F2000546F20041C4F20001284640F8FC
:10156000281F4FF4C0214FF4A0020623C0E9013721
:10157000C0E90371C0E905278783FFF7E9F818B1CF
:1015800072B600BFFEE700BFDBF8140042F20806A7
:1015900040F48070CBF81400DBF80000C4F20106C0
:1015A00040F00100CBF80000D6F8FC0205F1280459
:1015B00040F48030C6F8FC024FF4807046F8040C0A
:1015C00056F8040C20F0807046F8040C306840F0A7
:1015D00002003060306840F480603060306820F491
:1015E00000603060B06820F00800B060706A40F4BD
:1015F00080107062DAF8000040F00C00CAF80000B9
:10160000306840F0010030602046FFF761F9204665
:101610000221FEF7FFFE032028628520C5E9067738
:10162000286111E0706C2A46010A288002F8081F20
:10163000687205F110012B1D2046AF72FEF702FF04
:101640004FF47A70FFF780F9F762F06A40F001001A
:10165000F06246F8087C306840F08040306056F810
:10166000080C8007DED456F8080C80075CBF56F8DB
:10167000080C5FEA8070D5D456F8080C8007EED5C8
:10168000D0E7F1EE100A4FF6FF71C0F2C03120EA48
:10169000010040F04070E1EE100A704700000000C9
:1016A000000000000102030406070809D016000824
:1016B0000000002010000000EC010008E016000807
:1016C00010000020B80600000C0200080000000016
:1016D00001000000100000000024F40000000000E1
:040000050800018965
:00000001FF
